{
  "contractName": "PatientManagement",
  "abi": [
    {
      "inputs": [],
      "stateMutability": "nonpayable",
      "type": "constructor"
    },
    {
      "inputs": [],
      "name": "ownerAddress",
      "outputs": [
        {
          "internalType": "address",
          "name": "",
          "type": "address"
        }
      ],
      "stateMutability": "view",
      "type": "function",
      "constant": true
    },
    {
      "inputs": [
        {
          "internalType": "uint256",
          "name": "",
          "type": "uint256"
        }
      ],
      "name": "patientList",
      "outputs": [
        {
          "internalType": "uint256",
          "name": "patientId",
          "type": "uint256"
        },
        {
          "internalType": "uint256",
          "name": "age",
          "type": "uint256"
        },
        {
          "internalType": "uint256",
          "name": "gender",
          "type": "uint256"
        },
        {
          "internalType": "enum PatientManagement.VaccineStatus",
          "name": "vaccineStatus",
          "type": "uint8"
        },
        {
          "internalType": "string",
          "name": "district",
          "type": "string"
        },
        {
          "internalType": "string",
          "name": "symptomsDetails",
          "type": "string"
        },
        {
          "internalType": "bool",
          "name": "isDead",
          "type": "bool"
        },
        {
          "internalType": "address",
          "name": "patientAddress",
          "type": "address"
        },
        {
          "internalType": "enum PatientManagement.UserType",
          "name": "userType",
          "type": "uint8"
        }
      ],
      "stateMutability": "view",
      "type": "function",
      "constant": true
    },
    {
      "inputs": [
        {
          "internalType": "uint256",
          "name": "_age",
          "type": "uint256"
        },
        {
          "internalType": "uint256",
          "name": "_gender",
          "type": "uint256"
        },
        {
          "internalType": "string",
          "name": "_district",
          "type": "string"
        },
        {
          "internalType": "string",
          "name": "_symptomsDetails",
          "type": "string"
        },
        {
          "internalType": "enum PatientManagement.VaccineStatus",
          "name": "_vaccineStatus",
          "type": "uint8"
        },
        {
          "internalType": "bool",
          "name": "_isDead",
          "type": "bool"
        }
      ],
      "name": "storePatientData",
      "outputs": [],
      "stateMutability": "nonpayable",
      "type": "function"
    },
    {
      "inputs": [
        {
          "internalType": "address",
          "name": "_refAdminAddress",
          "type": "address"
        },
        {
          "internalType": "uint256",
          "name": "_age",
          "type": "uint256"
        },
        {
          "internalType": "uint256",
          "name": "_gender",
          "type": "uint256"
        },
        {
          "internalType": "string",
          "name": "_district",
          "type": "string"
        }
      ],
      "name": "storeAdminData",
      "outputs": [],
      "stateMutability": "nonpayable",
      "type": "function"
    },
    {
      "inputs": [
        {
          "internalType": "uint256",
          "name": "_patientId",
          "type": "uint256"
        },
        {
          "internalType": "enum PatientManagement.VaccineStatus",
          "name": "_vaccineStatus",
          "type": "uint8"
        }
      ],
      "name": "updateVaccineStatus",
      "outputs": [],
      "stateMutability": "nonpayable",
      "type": "function"
    },
    {
      "inputs": [
        {
          "internalType": "uint256",
          "name": "_patientId",
          "type": "uint256"
        },
        {
          "internalType": "bool",
          "name": "_deadStatus",
          "type": "bool"
        }
      ],
      "name": "updateDeadStatus",
      "outputs": [],
      "stateMutability": "nonpayable",
      "type": "function"
    },
    {
      "inputs": [],
      "name": "getPatientDataList",
      "outputs": [
        {
          "components": [
            {
              "internalType": "uint256",
              "name": "patientId",
              "type": "uint256"
            },
            {
              "internalType": "uint256",
              "name": "age",
              "type": "uint256"
            },
            {
              "internalType": "uint256",
              "name": "gender",
              "type": "uint256"
            },
            {
              "internalType": "enum PatientManagement.VaccineStatus",
              "name": "vaccineStatus",
              "type": "uint8"
            },
            {
              "internalType": "string",
              "name": "district",
              "type": "string"
            },
            {
              "internalType": "string",
              "name": "symptomsDetails",
              "type": "string"
            },
            {
              "internalType": "bool",
              "name": "isDead",
              "type": "bool"
            },
            {
              "internalType": "address",
              "name": "patientAddress",
              "type": "address"
            },
            {
              "internalType": "enum PatientManagement.UserType",
              "name": "userType",
              "type": "uint8"
            }
          ],
          "internalType": "struct PatientManagement.User[]",
          "name": "",
          "type": "tuple[]"
        }
      ],
      "stateMutability": "view",
      "type": "function",
      "constant": true
    }
  ],
  "bytecode": "0x608060405260006001553480156200001657600080fd5b50336000806101000a81548173ffffffffffffffffffffffffffffffffffffffff021916908373ffffffffffffffffffffffffffffffffffffffff1602179055506002604051806101200160405280600181526020016019815260200160018152602001600060028111156200009157620000906200031e565b5b81526020016040518060400160405280600581526020017f61646d696e00000000000000000000000000000000000000000000000000000081525081526020016040518060400160405280600581526020017f61646d696e000000000000000000000000000000000000000000000000000000815250815260200160001515815260200160008054906101000a900473ffffffffffffffffffffffffffffffffffffffff1673ffffffffffffffffffffffffffffffffffffffff168152602001600060018111156200016857620001676200031e565b5b815250908060018154018082558091505060019003906000526020600020906007020160009091909190915060008201518160000155602082015181600101556040820151816002015560608201518160030160006101000a81548160ff02191690836002811115620001e057620001df6200031e565b5b02179055506080820151816004019081620001fc9190620005c7565b5060a0820151816005019081620002149190620005c7565b5060c08201518160060160006101000a81548160ff02191690831515021790555060e08201518160060160016101000a81548173ffffffffffffffffffffffffffffffffffffffff021916908373ffffffffffffffffffffffffffffffffffffffff1602179055506101008201518160060160156101000a81548160ff02191690836001811115620002ab57620002aa6200031e565b5b021790555050506001600360008060009054906101000a900473ffffffffffffffffffffffffffffffffffffffff1673ffffffffffffffffffffffffffffffffffffffff1673ffffffffffffffffffffffffffffffffffffffff16815260200190815260200160002081905550620006ae565b7f4e487b7100000000000000000000000000000000000000000000000000000000600052602160045260246000fd5b600081519050919050565b7f4e487b7100000000000000000000000000000000000000000000000000000000600052604160045260246000fd5b7f4e487b7100000000000000000000000000000000000000000000000000000000600052602260045260246000fd5b60006002820490506001821680620003cf57607f821691505b602082108103620003e557620003e462000387565b5b50919050565b60008190508160005260206000209050919050565b60006020601f8301049050919050565b600082821b905092915050565b6000600883026200044f7fffffffffffffffffffffffffffffffffffffffffffffffffffffffffffffffff8262000410565b6200045b868362000410565b95508019841693508086168417925050509392505050565b6000819050919050565b6000819050919050565b6000620004a8620004a26200049c8462000473565b6200047d565b62000473565b9050919050565b6000819050919050565b620004c48362000487565b620004dc620004d382620004af565b8484546200041d565b825550505050565b600090565b620004f3620004e4565b62000500818484620004b9565b505050565b5b8181101562000528576200051c600082620004e9565b60018101905062000506565b5050565b601f82111562000577576200054181620003eb565b6200054c8462000400565b810160208510156200055c578190505b620005746200056b8562000400565b83018262000505565b50505b505050565b600082821c905092915050565b60006200059c600019846008026200057c565b1980831691505092915050565b6000620005b7838362000589565b9150826002028217905092915050565b620005d2826200034d565b67ffffffffffffffff811115620005ee57620005ed62000358565b5b620005fa8254620003b6565b620006078282856200052c565b600060209050601f8311600181146200063f57600084156200062a578287015190505b620006368582620005a9565b865550620006a6565b601f1984166200064f86620003eb565b60005b82811015620006795784890151825560018201915060208501945060208101905062000652565b8683101562000699578489015162000695601f89168262000589565b8355505b6001600288020188555050505b505050505050565b611a3680620006be6000396000f3fe608060405234801561001057600080fd5b506004361061007d5760003560e01c80638663759c1161005b5780638663759c146100d65780638f84aa09146100f4578063b9e8f6e014610112578063babb1d411461012e5761007d565b8063602de8c41461008257806373b3b8591461009e57806384825f83146100ba575b600080fd5b61009c60048036038101906100979190610cdf565b610166565b005b6100b860048036038101906100b39190610ec3565b610245565b005b6100d460048036038101906100cf9190610f7e565b61050c565b005b6100de6105db565b6040516100eb91906112b7565b60405180910390f35b6100fc610864565b60405161010991906112e8565b60405180910390f35b61012c60048036038101906101279190611303565b610888565b005b610148600480360381019061014391906113c8565b610abb565b60405161015d9998979695949392919061147b565b60405180910390f35b6001600360003373ffffffffffffffffffffffffffffffffffffffff1673ffffffffffffffffffffffffffffffffffffffff16815260200190815260200160002054146101e8576040517f08c379a00000000000000000000000000000000000000000000000000000000081526004016101df90611588565b60405180910390fd5b8060026001846101f891906115d7565b815481106102095761020861160b565b5b906000526020600020906007020160030160006101000a81548160ff0219169083600281111561023c5761023b610ff9565b5b02179055505050565b836001600360008373ffffffffffffffffffffffffffffffffffffffff1673ffffffffffffffffffffffffffffffffffffffff16815260200190815260200160002054146102c8576040517f08c379a00000000000000000000000000000000000000000000000000000000081526004016102bf90611686565b60405180910390fd5b6000604051806101200160405280600180546102e491906116a6565b81526020018681526020018581526020016000600281111561030957610308610ff9565b5b81526020018481526020016040518060200160405280600081525081526020016000151581526020013373ffffffffffffffffffffffffffffffffffffffff1681526020016000600181111561036257610361610ff9565b5b8152509050600281908060018154018082558091505060019003906000526020600020906007020160009091909190915060008201518160000155602082015181600101556040820151816002015560608201518160030160006101000a81548160ff021916908360028111156103dc576103db610ff9565b5b021790555060808201518160040190816103f691906118e6565b5060a082015181600501908161040c91906118e6565b5060c08201518160060160006101000a81548160ff02191690831515021790555060e08201518160060160016101000a81548173ffffffffffffffffffffffffffffffffffffffff021916908373ffffffffffffffffffffffffffffffffffffffff1602179055506101008201518160060160156101000a81548160ff021916908360018111156104a05761049f610ff9565b5b021790555050506001600360003373ffffffffffffffffffffffffffffffffffffffff1673ffffffffffffffffffffffffffffffffffffffff16815260200190815260200160002081905550600160008154809291906104ff906119b8565b9190505550505050505050565b6001600360003373ffffffffffffffffffffffffffffffffffffffff1673ffffffffffffffffffffffffffffffffffffffff168152602001908152602001600020541461058e576040517f08c379a000000000000000000000000000000000000000000000000000000000815260040161058590611588565b60405180910390fd5b80600260018461059e91906115d7565b815481106105af576105ae61160b565b5b906000526020600020906007020160060160006101000a81548160ff0219169083151502179055505050565b60606002805480602002602001604051908101604052809291908181526020016000905b8282101561085b5783829060005260206000209060070201604051806101200160405290816000820154815260200160018201548152602001600282015481526020016003820160009054906101000a900460ff16600281111561066657610665610ff9565b5b600281111561067857610677610ff9565b5b815260200160048201805461068c90611709565b80601f01602080910402602001604051908101604052809291908181526020018280546106b890611709565b80156107055780601f106106da57610100808354040283529160200191610705565b820191906000526020600020905b8154815290600101906020018083116106e857829003601f168201915b5050505050815260200160058201805461071e90611709565b80601f016020809104026020016040519081016040528092919081815260200182805461074a90611709565b80156107975780601f1061076c57610100808354040283529160200191610797565b820191906000526020600020905b81548152906001019060200180831161077a57829003601f168201915b505050505081526020016006820160009054906101000a900460ff161515151581526020016006820160019054906101000a900473ffffffffffffffffffffffffffffffffffffffff1673ffffffffffffffffffffffffffffffffffffffff1673ffffffffffffffffffffffffffffffffffffffff1681526020016006820160159054906101000a900460ff16600181111561083657610835610ff9565b5b600181111561084857610847610ff9565b5b81525050815260200190600101906105ff565b50505050905090565b60008054906101000a900473ffffffffffffffffffffffffffffffffffffffff1681565b6000604051806101200160405280600180546108a491906116a6565b81526020018881526020018781526020018460028111156108c8576108c7610ff9565b5b815260200186815260200185815260200183151581526020013373ffffffffffffffffffffffffffffffffffffffff1681526020016001808111156109105761090f610ff9565b5b8152509050600281908060018154018082558091505060019003906000526020600020906007020160009091909190915060008201518160000155602082015181600101556040820151816002015560608201518160030160006101000a81548160ff0219169083600281111561098a57610989610ff9565b5b021790555060808201518160040190816109a491906118e6565b5060a08201518160050190816109ba91906118e6565b5060c08201518160060160006101000a81548160ff02191690831515021790555060e08201518160060160016101000a81548173ffffffffffffffffffffffffffffffffffffffff021916908373ffffffffffffffffffffffffffffffffffffffff1602179055506101008201518160060160156101000a81548160ff02191690836001811115610a4e57610a4d610ff9565b5b021790555050506000600360003373ffffffffffffffffffffffffffffffffffffffff1673ffffffffffffffffffffffffffffffffffffffff1681526020019081526020016000208190555060016000815480929190610aad906119b8565b919050555050505050505050565b60028181548110610acb57600080fd5b90600052602060002090600702016000915090508060000154908060010154908060020154908060030160009054906101000a900460ff1690806004018054610b1390611709565b80601f0160208091040260200160405190810160405280929190818152602001828054610b3f90611709565b8015610b8c5780601f10610b6157610100808354040283529160200191610b8c565b820191906000526020600020905b815481529060010190602001808311610b6f57829003601f168201915b505050505090806005018054610ba190611709565b80601f0160208091040260200160405190810160405280929190818152602001828054610bcd90611709565b8015610c1a5780601f10610bef57610100808354040283529160200191610c1a565b820191906000526020600020905b815481529060010190602001808311610bfd57829003601f168201915b5050505050908060060160009054906101000a900460ff16908060060160019054906101000a900473ffffffffffffffffffffffffffffffffffffffff16908060060160159054906101000a900460ff16905089565b6000604051905090565b600080fd5b600080fd5b6000819050919050565b610c9781610c84565b8114610ca257600080fd5b50565b600081359050610cb481610c8e565b92915050565b60038110610cc757600080fd5b50565b600081359050610cd981610cba565b92915050565b60008060408385031215610cf657610cf5610c7a565b5b6000610d0485828601610ca5565b9250506020610d1585828601610cca565b9150509250929050565b600073ffffffffffffffffffffffffffffffffffffffff82169050919050565b6000610d4a82610d1f565b9050919050565b610d5a81610d3f565b8114610d6557600080fd5b50565b600081359050610d7781610d51565b92915050565b600080fd5b600080fd5b6000601f19601f8301169050919050565b7f4e487b7100000000000000000000000000000000000000000000000000000000600052604160045260246000fd5b610dd082610d87565b810181811067ffffffffffffffff82111715610def57610dee610d98565b5b80604052505050565b6000610e02610c70565b9050610e0e8282610dc7565b919050565b600067ffffffffffffffff821115610e2e57610e2d610d98565b5b610e3782610d87565b9050602081019050919050565b82818337600083830152505050565b6000610e66610e6184610e13565b610df8565b905082815260208101848484011115610e8257610e81610d82565b5b610e8d848285610e44565b509392505050565b600082601f830112610eaa57610ea9610d7d565b5b8135610eba848260208601610e53565b91505092915050565b60008060008060808587031215610edd57610edc610c7a565b5b6000610eeb87828801610d68565b9450506020610efc87828801610ca5565b9350506040610f0d87828801610ca5565b925050606085013567ffffffffffffffff811115610f2e57610f2d610c7f565b5b610f3a87828801610e95565b91505092959194509250565b60008115159050919050565b610f5b81610f46565b8114610f6657600080fd5b50565b600081359050610f7881610f52565b92915050565b60008060408385031215610f9557610f94610c7a565b5b6000610fa385828601610ca5565b9250506020610fb485828601610f69565b9150509250929050565b600081519050919050565b600082825260208201905092915050565b6000819050602082019050919050565b610ff381610c84565b82525050565b7f4e487b7100000000000000000000000000000000000000000000000000000000600052602160045260246000fd5b6003811061103957611038610ff9565b5b50565b600081905061104a82611028565b919050565b600061105a8261103c565b9050919050565b61106a8161104f565b82525050565b600081519050919050565b600082825260208201905092915050565b60005b838110156110aa57808201518184015260208101905061108f565b60008484015250505050565b60006110c182611070565b6110cb818561107b565b93506110db81856020860161108c565b6110e481610d87565b840191505092915050565b6110f881610f46565b82525050565b61110781610d3f565b82525050565b6002811061111e5761111d610ff9565b5b50565b600081905061112f8261110d565b919050565b600061113f82611121565b9050919050565b61114f81611134565b82525050565b60006101208301600083015161116e6000860182610fea565b5060208301516111816020860182610fea565b5060408301516111946040860182610fea565b5060608301516111a76060860182611061565b50608083015184820360808601526111bf82826110b6565b91505060a083015184820360a08601526111d982826110b6565b91505060c08301516111ee60c08601826110ef565b5060e083015161120160e08601826110fe565b50610100830151611216610100860182611146565b508091505092915050565b600061122d8383611155565b905092915050565b6000602082019050919050565b600061124d82610fbe565b6112578185610fc9565b93508360208202850161126985610fda565b8060005b858110156112a557848403895281516112868582611221565b945061129183611235565b925060208a0199505060018101905061126d565b50829750879550505050505092915050565b600060208201905081810360008301526112d18184611242565b905092915050565b6112e281610d3f565b82525050565b60006020820190506112fd60008301846112d9565b92915050565b60008060008060008060c087890312156113205761131f610c7a565b5b600061132e89828a01610ca5565b965050602061133f89828a01610ca5565b955050604087013567ffffffffffffffff8111156113605761135f610c7f565b5b61136c89828a01610e95565b945050606087013567ffffffffffffffff81111561138d5761138c610c7f565b5b61139989828a01610e95565b93505060806113aa89828a01610cca565b92505060a06113bb89828a01610f69565b9150509295509295509295565b6000602082840312156113de576113dd610c7a565b5b60006113ec84828501610ca5565b91505092915050565b6113fe81610c84565b82525050565b61140d8161104f565b82525050565b600082825260208201905092915050565b600061142f82611070565b6114398185611413565b935061144981856020860161108c565b61145281610d87565b840191505092915050565b61146681610f46565b82525050565b61147581611134565b82525050565b600061012082019050611491600083018c6113f5565b61149e602083018b6113f5565b6114ab604083018a6113f5565b6114b86060830189611404565b81810360808301526114ca8188611424565b905081810360a08301526114de8187611424565b90506114ed60c083018661145d565b6114fa60e08301856112d9565b61150861010083018461146c565b9a9950505050505050505050565b7f4f6e6c792061646d696e2063616e2061636365737320746869732066756e637460008201527f696f6e0000000000000000000000000000000000000000000000000000000000602082015250565b6000611572602383611413565b915061157d82611516565b604082019050919050565b600060208201905081810360008301526115a181611565565b9050919050565b7f4e487b7100000000000000000000000000000000000000000000000000000000600052601160045260246000fd5b60006115e282610c84565b91506115ed83610c84565b9250828203905081811115611605576116046115a8565b5b92915050565b7f4e487b7100000000000000000000000000000000000000000000000000000000600052603260045260246000fd5b7f496e76616c6964207265666572656e6365206164647265737321000000000000600082015250565b6000611670601a83611413565b915061167b8261163a565b602082019050919050565b6000602082019050818103600083015261169f81611663565b9050919050565b60006116b182610c84565b91506116bc83610c84565b92508282019050808211156116d4576116d36115a8565b5b92915050565b7f4e487b7100000000000000000000000000000000000000000000000000000000600052602260045260246000fd5b6000600282049050600182168061172157607f821691505b602082108103611734576117336116da565b5b50919050565b60008190508160005260206000209050919050565b60006020601f8301049050919050565b600082821b905092915050565b60006008830261179c7fffffffffffffffffffffffffffffffffffffffffffffffffffffffffffffffff8261175f565b6117a6868361175f565b95508019841693508086168417925050509392505050565b6000819050919050565b60006117e36117de6117d984610c84565b6117be565b610c84565b9050919050565b6000819050919050565b6117fd836117c8565b611811611809826117ea565b84845461176c565b825550505050565b600090565b611826611819565b6118318184846117f4565b505050565b5b818110156118555761184a60008261181e565b600181019050611837565b5050565b601f82111561189a5761186b8161173a565b6118748461174f565b81016020851015611883578190505b61189761188f8561174f565b830182611836565b50505b505050565b600082821c905092915050565b60006118bd6000198460080261189f565b1980831691505092915050565b60006118d683836118ac565b9150826002028217905092915050565b6118ef82611070565b67ffffffffffffffff81111561190857611907610d98565b5b6119128254611709565b61191d828285611859565b600060209050601f831160018114611950576000841561193e578287015190505b61194885826118ca565b8655506119b0565b601f19841661195e8661173a565b60005b8281101561198657848901518255600182019150602085019450602081019050611961565b868310156119a3578489015161199f601f8916826118ac565b8355505b6001600288020188555050505b505050505050565b60006119c382610c84565b91507fffffffffffffffffffffffffffffffffffffffffffffffffffffffffffffffff82036119f5576119f46115a8565b5b60018201905091905056fea26469706673582212209a66fde393387fb1981ddf7bb72d1b82816126e458ab872c0b813ce3128fb89564736f6c63430008110033",
  "immutableReferences": {},
  "source": "// SPDX-License-Identifier: MIT\r\npragma solidity 0.8.17;\r\n\r\n// Admin, Patient\r\n\r\ncontract PatientManagement {\r\n    address public ownerAddress;\r\n\r\n    uint internal initialPatientId = 0;\r\n\r\n    User[] public patientList;\r\n    mapping(address => uint) isAdmin;\r\n\r\n    struct User {\r\n        uint256 patientId;\r\n        uint256 age;\r\n        uint256 gender; // 1 - male, 2- female;\r\n        VaccineStatus vaccineStatus; // 0, 1, 2\r\n        string district;\r\n        string symptomsDetails;\r\n        bool isDead;\r\n        address patientAddress;\r\n        UserType userType;\r\n    }\r\n    enum VaccineStatus {\r\n        not_vaccinated,\r\n        one_dose,\r\n        two_dose\r\n    }\r\n    enum UserType {\r\n        admin,\r\n        patient\r\n    }\r\n\r\n    modifier onlyAdminAccess() {\r\n        require(\r\n            isAdmin[msg.sender] == 1,\r\n            \"Only admin can access this function\"\r\n        );\r\n        _;\r\n    }\r\n\r\n    modifier validRefAdminAddress(address _refAddress) {\r\n        require(isAdmin[_refAddress] == 1, \"Invalid reference address!\");\r\n        _;\r\n    }\r\n\r\n    constructor() {\r\n        ownerAddress = msg.sender;\r\n        patientList.push(\r\n            User(\r\n                1,\r\n                25,\r\n                1,\r\n                VaccineStatus.not_vaccinated,\r\n                \"admin\",\r\n                \"admin\",\r\n                false,\r\n                ownerAddress,\r\n                UserType.admin\r\n            )\r\n        );\r\n        isAdmin[ownerAddress] = 1;\r\n    }\r\n\r\n    // Storing patient data\r\n    function storePatientData(\r\n        uint256 _age,\r\n        uint256 _gender,\r\n        string memory _district,\r\n        string memory _symptomsDetails,\r\n        VaccineStatus _vaccineStatus,\r\n        bool _isDead\r\n    ) public {\r\n        User memory tempPatient = User(\r\n            initialPatientId + 1,\r\n            _age,\r\n            _gender,\r\n            _vaccineStatus,\r\n            _district,\r\n            _symptomsDetails,\r\n            _isDead,\r\n            msg.sender,\r\n            UserType.patient\r\n        );\r\n\r\n        patientList.push(tempPatient);\r\n        isAdmin[msg.sender] = 0;\r\n        initialPatientId++;\r\n    }\r\n\r\n    function storeAdminData(\r\n        address _refAdminAddress,\r\n        uint256 _age,\r\n        uint256 _gender,\r\n        string memory _district\r\n    ) public validRefAdminAddress(_refAdminAddress) {\r\n        User memory tempPatient = User(\r\n            initialPatientId + 1,\r\n            _age,\r\n            _gender,\r\n            VaccineStatus.not_vaccinated,\r\n            _district,\r\n            \"\",\r\n            false,\r\n            msg.sender,\r\n            UserType.admin\r\n        );\r\n\r\n        patientList.push(tempPatient);\r\n        isAdmin[msg.sender] = 1;\r\n        initialPatientId++;\r\n    }\r\n\r\n    function updateVaccineStatus(\r\n        uint _patientId,\r\n        VaccineStatus _vaccineStatus\r\n    ) public onlyAdminAccess {\r\n        patientList[_patientId - 1].vaccineStatus = _vaccineStatus;\r\n    }\r\n\r\n    function updateDeadStatus(\r\n        uint _patientId,\r\n        bool _deadStatus\r\n    ) public onlyAdminAccess {\r\n        patientList[_patientId - 1].isDead = _deadStatus;\r\n    }\r\n\r\n    function getPatientDataList() public view returns (User[] memory) {\r\n        return patientList;\r\n    }\r\n}\r\n",
  "sourcePath": "C:\\Users\\ANJAR\\Desktop\\Project 1\\contracts\\patientManagement.sol",
  "compiler": {
    "name": "solc",
    "version": "0.8.17+commit.8df45f5f.Emscripten.clang"
  },
  "schemaVersion": "3.4.16",
  "updatedAt": "2024-04-13T19:53:35.356Z",
  "networkType": "ethereum",
  "devdoc": {
    "kind": "dev",
    "methods": {},
    "version": 1
  },
  "userdoc": {
    "kind": "user",
    "methods": {},
    "version": 1
  }
}