{
  "contractName": "PatientManagement",
  "abi": [
    {
      "inputs": [],
      "stateMutability": "nonpayable",
      "type": "constructor"
    },
    {
      "inputs": [
        {
          "internalType": "uint256",
          "name": "",
          "type": "uint256"
        }
      ],
      "name": "patientList",
      "outputs": [
        {
          "internalType": "uint256",
          "name": "patientId",
          "type": "uint256"
        },
        {
          "internalType": "bytes12",
          "name": "age",
          "type": "bytes12"
        },
        {
          "internalType": "bytes12",
          "name": "gender",
          "type": "bytes12"
        },
        {
          "internalType": "enum PatientManagement.VaccineStatus",
          "name": "vaccineStatus",
          "type": "uint8"
        },
        {
          "internalType": "string",
          "name": "district",
          "type": "string"
        },
        {
          "internalType": "string",
          "name": "symptomsDetails",
          "type": "string"
        },
        {
          "internalType": "bool",
          "name": "isDead",
          "type": "bool"
        },
        {
          "internalType": "address",
          "name": "patientAddress",
          "type": "address"
        }
      ],
      "stateMutability": "view",
      "type": "function"
    },
    {
      "inputs": [
        {
          "internalType": "bytes12",
          "name": "_age",
          "type": "bytes12"
        },
        {
          "internalType": "bytes12",
          "name": "_gender",
          "type": "bytes12"
        },
        {
          "internalType": "string",
          "name": "_district",
          "type": "string"
        },
        {
          "internalType": "string",
          "name": "_symptomsDetails",
          "type": "string"
        }
      ],
      "name": "storePatientData",
      "outputs": [],
      "stateMutability": "nonpayable",
      "type": "function"
    },
    {
      "inputs": [
        {
          "internalType": "uint256",
          "name": "_patientId",
          "type": "uint256"
        },
        {
          "internalType": "enum PatientManagement.VaccineStatus",
          "name": "_vaccineStatus",
          "type": "uint8"
        }
      ],
      "name": "updateVaccineStatus",
      "outputs": [],
      "stateMutability": "nonpayable",
      "type": "function"
    },
    {
      "inputs": [
        {
          "internalType": "uint256",
          "name": "_patientId",
          "type": "uint256"
        },
        {
          "internalType": "bool",
          "name": "_deadStatus",
          "type": "bool"
        }
      ],
      "name": "updateDeadStatus",
      "outputs": [],
      "stateMutability": "nonpayable",
      "type": "function"
    }
  ],
  "bytecode": "0x60806040525f600155348015610013575f80fd5b50335f806101000a81548173ffffffffffffffffffffffffffffffffffffffff021916908373ffffffffffffffffffffffffffffffffffffffff16021790555061103c806100605f395ff3fe608060405234801561000f575f80fd5b506004361061004a575f3560e01c8063602de8c41461004e57806384825f831461006a578063babb1d4114610086578063c410206e146100bd575b5f80fd5b610068600480360381019061006391906106bc565b6100d9565b005b610084600480360381019061007f919061072f565b6101c1565b005b6100a0600480360381019061009b919061076d565b610298565b6040516100b498979695949392919061092c565b60405180910390f35b6100d760048036038101906100d29190610b0c565b610449565b005b5f8054906101000a900473ffffffffffffffffffffffffffffffffffffffff1673ffffffffffffffffffffffffffffffffffffffff163373ffffffffffffffffffffffffffffffffffffffff1603610166576040517f08c379a000000000000000000000000000000000000000000000000000000000815260040161015d90610c18565b60405180910390fd5b8060026001846101769190610c63565b8154811061018757610186610c96565b5b905f5260205f20906005020160010160186101000a81548160ff021916908360028111156101b8576101b76107e1565b5b02179055505050565b5f8054906101000a900473ffffffffffffffffffffffffffffffffffffffff1673ffffffffffffffffffffffffffffffffffffffff163373ffffffffffffffffffffffffffffffffffffffff160361024e576040517f08c379a000000000000000000000000000000000000000000000000000000000815260040161024590610c18565b60405180910390fd5b80600260018461025e9190610c63565b8154811061026f5761026e610c96565b5b905f5260205f2090600502016004015f6101000a81548160ff0219169083151502179055505050565b600281815481106102a7575f80fd5b905f5260205f2090600502015f91509050805f015490806001015f9054906101000a900460a01b9080600101600c9054906101000a900460a01b908060010160189054906101000a900460ff169080600201805461030490610cf0565b80601f016020809104026020016040519081016040528092919081815260200182805461033090610cf0565b801561037b5780601f106103525761010080835404028352916020019161037b565b820191905f5260205f20905b81548152906001019060200180831161035e57829003601f168201915b50505050509080600301805461039090610cf0565b80601f01602080910402602001604051908101604052809291908181526020018280546103bc90610cf0565b80156104075780601f106103de57610100808354040283529160200191610407565b820191905f5260205f20905b8154815290600101906020018083116103ea57829003601f168201915b505050505090806004015f9054906101000a900460ff16908060040160019054906101000a900473ffffffffffffffffffffffffffffffffffffffff16905088565b5f604051806101000160405280600180546104649190610d20565b81526020018673ffffffffffffffffffffffffffffffffffffffff191681526020018573ffffffffffffffffffffffffffffffffffffffff191681526020015f60028111156104b6576104b56107e1565b5b81526020018481526020018381526020015f151581526020013373ffffffffffffffffffffffffffffffffffffffff168152509050600281908060018154018082558091505060019003905f5260205f2090600502015f909190919091505f820151815f01556020820151816001015f6101000a8154816bffffffffffffffffffffffff021916908360a01c0217905550604082015181600101600c6101000a8154816bffffffffffffffffffffffff021916908360a01c021790555060608201518160010160186101000a81548160ff0219169083600281111561059e5761059d6107e1565b5b021790555060808201518160020190816105b89190610ef0565b5060a08201518160030190816105ce9190610ef0565b5060c0820151816004015f6101000a81548160ff02191690831515021790555060e08201518160040160016101000a81548173ffffffffffffffffffffffffffffffffffffffff021916908373ffffffffffffffffffffffffffffffffffffffff160217905550505060015f81548092919061064990610fbf565b91905055505050505050565b5f604051905090565b5f80fd5b5f80fd5b5f819050919050565b61067881610666565b8114610682575f80fd5b50565b5f813590506106938161066f565b92915050565b600381106106a5575f80fd5b50565b5f813590506106b681610699565b92915050565b5f80604083850312156106d2576106d161065e565b5b5f6106df85828601610685565b92505060206106f0858286016106a8565b9150509250929050565b5f8115159050919050565b61070e816106fa565b8114610718575f80fd5b50565b5f8135905061072981610705565b92915050565b5f80604083850312156107455761074461065e565b5b5f61075285828601610685565b92505060206107638582860161071b565b9150509250929050565b5f602082840312156107825761078161065e565b5b5f61078f84828501610685565b91505092915050565b6107a181610666565b82525050565b5f7fffffffffffffffffffffffff000000000000000000000000000000000000000082169050919050565b6107db816107a7565b82525050565b7f4e487b71000000000000000000000000000000000000000000000000000000005f52602160045260245ffd5b6003811061081f5761081e6107e1565b5b50565b5f81905061082f8261080e565b919050565b5f61083e82610822565b9050919050565b61084e81610834565b82525050565b5f81519050919050565b5f82825260208201905092915050565b5f5b8381101561088b578082015181840152602081019050610870565b5f8484015250505050565b5f601f19601f8301169050919050565b5f6108b082610854565b6108ba818561085e565b93506108ca81856020860161086e565b6108d381610896565b840191505092915050565b6108e7816106fa565b82525050565b5f73ffffffffffffffffffffffffffffffffffffffff82169050919050565b5f610916826108ed565b9050919050565b6109268161090c565b82525050565b5f610100820190506109405f83018b610798565b61094d602083018a6107d2565b61095a60408301896107d2565b6109676060830188610845565b818103608083015261097981876108a6565b905081810360a083015261098d81866108a6565b905061099c60c08301856108de565b6109a960e083018461091d565b9998505050505050505050565b6109bf816107a7565b81146109c9575f80fd5b50565b5f813590506109da816109b6565b92915050565b5f80fd5b5f80fd5b7f4e487b71000000000000000000000000000000000000000000000000000000005f52604160045260245ffd5b610a1e82610896565b810181811067ffffffffffffffff82111715610a3d57610a3c6109e8565b5b80604052505050565b5f610a4f610655565b9050610a5b8282610a15565b919050565b5f67ffffffffffffffff821115610a7a57610a796109e8565b5b610a8382610896565b9050602081019050919050565b828183375f83830152505050565b5f610ab0610aab84610a60565b610a46565b905082815260208101848484011115610acc57610acb6109e4565b5b610ad7848285610a90565b509392505050565b5f82601f830112610af357610af26109e0565b5b8135610b03848260208601610a9e565b91505092915050565b5f805f8060808587031215610b2457610b2361065e565b5b5f610b31878288016109cc565b9450506020610b42878288016109cc565b935050604085013567ffffffffffffffff811115610b6357610b62610662565b5b610b6f87828801610adf565b925050606085013567ffffffffffffffff811115610b9057610b8f610662565b5b610b9c87828801610adf565b91505092959194509250565b7f4f6e6c792061646d696e2063616e2061636365737320746869732066756e63745f8201527f696f6e0000000000000000000000000000000000000000000000000000000000602082015250565b5f610c0260238361085e565b9150610c0d82610ba8565b604082019050919050565b5f6020820190508181035f830152610c2f81610bf6565b9050919050565b7f4e487b71000000000000000000000000000000000000000000000000000000005f52601160045260245ffd5b5f610c6d82610666565b9150610c7883610666565b9250828203905081811115610c9057610c8f610c36565b5b92915050565b7f4e487b71000000000000000000000000000000000000000000000000000000005f52603260045260245ffd5b7f4e487b71000000000000000000000000000000000000000000000000000000005f52602260045260245ffd5b5f6002820490506001821680610d0757607f821691505b602082108103610d1a57610d19610cc3565b5b50919050565b5f610d2a82610666565b9150610d3583610666565b9250828201905080821115610d4d57610d4c610c36565b5b92915050565b5f819050815f5260205f209050919050565b5f6020601f8301049050919050565b5f82821b905092915050565b5f60088302610daf7fffffffffffffffffffffffffffffffffffffffffffffffffffffffffffffffff82610d74565b610db98683610d74565b95508019841693508086168417925050509392505050565b5f819050919050565b5f610df4610def610dea84610666565b610dd1565b610666565b9050919050565b5f819050919050565b610e0d83610dda565b610e21610e1982610dfb565b848454610d80565b825550505050565b5f90565b610e35610e29565b610e40818484610e04565b505050565b5b81811015610e6357610e585f82610e2d565b600181019050610e46565b5050565b601f821115610ea857610e7981610d53565b610e8284610d65565b81016020851015610e91578190505b610ea5610e9d85610d65565b830182610e45565b50505b505050565b5f82821c905092915050565b5f610ec85f1984600802610ead565b1980831691505092915050565b5f610ee08383610eb9565b9150826002028217905092915050565b610ef982610854565b67ffffffffffffffff811115610f1257610f116109e8565b5b610f1c8254610cf0565b610f27828285610e67565b5f60209050601f831160018114610f58575f8415610f46578287015190505b610f508582610ed5565b865550610fb7565b601f198416610f6686610d53565b5f5b82811015610f8d57848901518255600182019150602085019450602081019050610f68565b86831015610faa5784890151610fa6601f891682610eb9565b8355505b6001600288020188555050505b505050505050565b5f610fc982610666565b91507fffffffffffffffffffffffffffffffffffffffffffffffffffffffffffffffff8203610ffb57610ffa610c36565b5b60018201905091905056fea26469706673582212208da696dc8c4c58e08aeddacb407b45a14c9ecd596692f59985596af25c35ddd564736f6c63430008150033",
  "immutableReferences": {},
  "source": "// SPDX-License-Identifier: MIT\r\npragma solidity ^0.8.0;\r\n\r\n// Admin, Patient\r\n\r\ncontract PatientManagement {\r\n    address adminAddress;\r\n\r\n    uint initialPatientId = 0;\r\n\r\n    Patient[] public patientList;\r\n\r\n    struct Patient {\r\n        uint256 patientId;\r\n        bytes12 age;\r\n        bytes12 gender; // 1 - male, 2- female;\r\n        VaccineStatus vaccineStatus; // 0, 1, 2\r\n        string district;\r\n        string symptomsDetails;\r\n        bool isDead;\r\n        address patientAddress;\r\n    }\r\n    enum VaccineStatus {\r\n        not_vaccinated,\r\n        one_dose,\r\n        two_dose\r\n    }\r\n\r\n    constructor() {\r\n        adminAddress = msg.sender;\r\n    }\r\n\r\n    // Storing patient data\r\n    function storePatientData(\r\n        bytes12 _age,\r\n        bytes12 _gender,\r\n        string memory _district,\r\n        string memory _symptomsDetails\r\n    ) public {\r\n        Patient memory tempPatient = Patient(\r\n            initialPatientId + 1,\r\n            _age,\r\n            _gender,\r\n            VaccineStatus.not_vaccinated,\r\n            _district,\r\n            _symptomsDetails,\r\n            false,\r\n            msg.sender\r\n        );\r\n\r\n        patientList.push(tempPatient);\r\n        initialPatientId++;\r\n    }\r\n\r\n    modifier onlyAdminAccess() {\r\n        require(\r\n            msg.sender != adminAddress,\r\n            \"Only admin can access this function\"\r\n        );\r\n        _;\r\n    }\r\n\r\n    function updateVaccineStatus(\r\n        uint _patientId,\r\n        VaccineStatus _vaccineStatus\r\n    ) public onlyAdminAccess {\r\n        patientList[_patientId - 1].vaccineStatus = _vaccineStatus;\r\n    }\r\n\r\n    function updateDeadStatus(\r\n        uint _patientId,\r\n        bool _deadStatus\r\n    ) public onlyAdminAccess {\r\n        patientList[_patientId - 1].isDead = _deadStatus;\r\n    }\r\n}\r\n",
  "sourcePath": "C:\\Users\\ANJAR\\Desktop\\Project 1\\contracts\\patientManagement.sol",
  "compiler": {
    "name": "solc",
    "version": "0.8.21+commit.d9974bed.Emscripten.clang"
  },
  "schemaVersion": "3.4.16",
  "updatedAt": "2024-04-05T09:21:44.070Z",
  "devdoc": {
    "kind": "dev",
    "methods": {},
    "version": 1
  },
  "userdoc": {
    "kind": "user",
    "methods": {},
    "version": 1
  }
}