{
  "contractName": "PatientManagement",
  "abi": [
    {
      "inputs": [],
      "stateMutability": "nonpayable",
      "type": "constructor"
    },
    {
      "inputs": [],
      "name": "ownerAddress",
      "outputs": [
        {
          "internalType": "address",
          "name": "",
          "type": "address"
        }
      ],
      "stateMutability": "view",
      "type": "function",
      "constant": true
    },
    {
      "inputs": [
        {
          "internalType": "uint256",
          "name": "",
          "type": "uint256"
        }
      ],
      "name": "patientList",
      "outputs": [
        {
          "internalType": "uint256",
          "name": "patientId",
          "type": "uint256"
        },
        {
          "internalType": "uint8",
          "name": "age",
          "type": "uint8"
        },
        {
          "internalType": "uint256",
          "name": "gender",
          "type": "uint256"
        },
        {
          "internalType": "enum PatientManagement.VaccineStatus",
          "name": "vaccineStatus",
          "type": "uint8"
        },
        {
          "internalType": "string",
          "name": "district",
          "type": "string"
        },
        {
          "internalType": "string",
          "name": "symptomsDetails",
          "type": "string"
        },
        {
          "internalType": "bool",
          "name": "isDead",
          "type": "bool"
        },
        {
          "internalType": "address",
          "name": "patientAddress",
          "type": "address"
        },
        {
          "internalType": "enum PatientManagement.UserType",
          "name": "userType",
          "type": "uint8"
        }
      ],
      "stateMutability": "view",
      "type": "function",
      "constant": true
    },
    {
      "inputs": [
        {
          "internalType": "uint8",
          "name": "_age",
          "type": "uint8"
        },
        {
          "internalType": "uint256",
          "name": "_gender",
          "type": "uint256"
        },
        {
          "internalType": "string",
          "name": "_district",
          "type": "string"
        },
        {
          "internalType": "string",
          "name": "_symptomsDetails",
          "type": "string"
        },
        {
          "internalType": "enum PatientManagement.VaccineStatus",
          "name": "_vaccineStatus",
          "type": "uint8"
        },
        {
          "internalType": "bool",
          "name": "_isDead",
          "type": "bool"
        }
      ],
      "name": "storePatientData",
      "outputs": [],
      "stateMutability": "nonpayable",
      "type": "function"
    },
    {
      "inputs": [
        {
          "internalType": "address",
          "name": "_refAdminAddress",
          "type": "address"
        },
        {
          "internalType": "uint8",
          "name": "_age",
          "type": "uint8"
        },
        {
          "internalType": "uint256",
          "name": "_gender",
          "type": "uint256"
        },
        {
          "internalType": "string",
          "name": "_district",
          "type": "string"
        }
      ],
      "name": "storeAdminData",
      "outputs": [],
      "stateMutability": "nonpayable",
      "type": "function"
    },
    {
      "inputs": [
        {
          "internalType": "uint256",
          "name": "_patientId",
          "type": "uint256"
        },
        {
          "internalType": "enum PatientManagement.VaccineStatus",
          "name": "_vaccineStatus",
          "type": "uint8"
        }
      ],
      "name": "updateVaccineStatus",
      "outputs": [],
      "stateMutability": "nonpayable",
      "type": "function"
    },
    {
      "inputs": [
        {
          "internalType": "uint256",
          "name": "_patientId",
          "type": "uint256"
        },
        {
          "internalType": "bool",
          "name": "_deadStatus",
          "type": "bool"
        }
      ],
      "name": "updateDeadStatus",
      "outputs": [],
      "stateMutability": "nonpayable",
      "type": "function"
    },
    {
      "inputs": [],
      "name": "getPatientDataList",
      "outputs": [
        {
          "components": [
            {
              "internalType": "uint256",
              "name": "patientId",
              "type": "uint256"
            },
            {
              "internalType": "uint8",
              "name": "age",
              "type": "uint8"
            },
            {
              "internalType": "uint256",
              "name": "gender",
              "type": "uint256"
            },
            {
              "internalType": "enum PatientManagement.VaccineStatus",
              "name": "vaccineStatus",
              "type": "uint8"
            },
            {
              "internalType": "string",
              "name": "district",
              "type": "string"
            },
            {
              "internalType": "string",
              "name": "symptomsDetails",
              "type": "string"
            },
            {
              "internalType": "bool",
              "name": "isDead",
              "type": "bool"
            },
            {
              "internalType": "address",
              "name": "patientAddress",
              "type": "address"
            },
            {
              "internalType": "enum PatientManagement.UserType",
              "name": "userType",
              "type": "uint8"
            }
          ],
          "internalType": "struct PatientManagement.User[]",
          "name": "",
          "type": "tuple[]"
        }
      ],
      "stateMutability": "view",
      "type": "function",
      "constant": true
    }
  ],
  "bytecode": "0x608060405260006001553480156200001657600080fd5b50336000806101000a81548173ffffffffffffffffffffffffffffffffffffffff021916908373ffffffffffffffffffffffffffffffffffffffff160217905550600260405180610120016040528060018152602001601960ff168152602001600181526020016000600281111562000094576200009362000338565b5b81526020016040518060400160405280600581526020017f4468616b6100000000000000000000000000000000000000000000000000000081525081526020016040518060400160405280600881526020017f4865616461636865000000000000000000000000000000000000000000000000815250815260200160001515815260200160008054906101000a900473ffffffffffffffffffffffffffffffffffffffff1673ffffffffffffffffffffffffffffffffffffffff168152602001600060018111156200016b576200016a62000338565b5b81525090806001815401808255809150506001900390600052602060002090600702016000909190919091506000820151816000015560208201518160010160006101000a81548160ff021916908360ff1602179055506040820151816002015560608201518160030160006101000a81548160ff02191690836002811115620001fa57620001f962000338565b5b02179055506080820151816004019081620002169190620005e1565b5060a08201518160050190816200022e9190620005e1565b5060c08201518160060160006101000a81548160ff02191690831515021790555060e08201518160060160016101000a81548173ffffffffffffffffffffffffffffffffffffffff021916908373ffffffffffffffffffffffffffffffffffffffff1602179055506101008201518160060160156101000a81548160ff02191690836001811115620002c557620002c462000338565b5b021790555050506001600360008060009054906101000a900473ffffffffffffffffffffffffffffffffffffffff1673ffffffffffffffffffffffffffffffffffffffff1673ffffffffffffffffffffffffffffffffffffffff16815260200190815260200160002081905550620006c8565b7f4e487b7100000000000000000000000000000000000000000000000000000000600052602160045260246000fd5b600081519050919050565b7f4e487b7100000000000000000000000000000000000000000000000000000000600052604160045260246000fd5b7f4e487b7100000000000000000000000000000000000000000000000000000000600052602260045260246000fd5b60006002820490506001821680620003e957607f821691505b602082108103620003ff57620003fe620003a1565b5b50919050565b60008190508160005260206000209050919050565b60006020601f8301049050919050565b600082821b905092915050565b600060088302620004697fffffffffffffffffffffffffffffffffffffffffffffffffffffffffffffffff826200042a565b6200047586836200042a565b95508019841693508086168417925050509392505050565b6000819050919050565b6000819050919050565b6000620004c2620004bc620004b6846200048d565b62000497565b6200048d565b9050919050565b6000819050919050565b620004de83620004a1565b620004f6620004ed82620004c9565b84845462000437565b825550505050565b600090565b6200050d620004fe565b6200051a818484620004d3565b505050565b5b8181101562000542576200053660008262000503565b60018101905062000520565b5050565b601f82111562000591576200055b8162000405565b62000566846200041a565b8101602085101562000576578190505b6200058e62000585856200041a565b8301826200051f565b50505b505050565b600082821c905092915050565b6000620005b66000198460080262000596565b1980831691505092915050565b6000620005d18383620005a3565b9150826002028217905092915050565b620005ec8262000367565b67ffffffffffffffff81111562000608576200060762000372565b5b620006148254620003d0565b6200062182828562000546565b600060209050601f83116001811462000659576000841562000644578287015190505b620006508582620005c3565b865550620006c0565b601f198416620006698662000405565b60005b8281101562000693578489015182556001820191506020850194506020810190506200066c565b86831015620006b35784890151620006af601f891682620005a3565b8355505b6001600288020188555050505b505050505050565b611ae180620006d86000396000f3fe608060405234801561001057600080fd5b506004361061007d5760003560e01c80638663759c1161005b5780638663759c146100d65780638eed5c5f146100f45780638f84aa0914610110578063babb1d411461012e5761007d565b8063447b618f14610082578063602de8c41461009e57806384825f83146100ba575b600080fd5b61009c60048036038101906100979190610eeb565b610166565b005b6100b860048036038101906100b39190610f93565b610447565b005b6100d460048036038101906100cf919061100b565b610526565b005b6100de6105f5565b6040516100eb9190611353565b60405180910390f35b61010e60048036038101906101099190611375565b610891565b005b610118610ade565b6040516101259190611449565b60405180910390f35b61014860048036038101906101439190611464565b610b02565b60405161015d99989796959493929190611526565b60405180910390f35b836001600360008373ffffffffffffffffffffffffffffffffffffffff1673ffffffffffffffffffffffffffffffffffffffff16815260200190815260200160002054146101e9576040517f08c379a00000000000000000000000000000000000000000000000000000000081526004016101e09061160d565b60405180910390fd5b600060405180610120016040528060018054610205919061165c565b81526020018660ff1681526020018581526020016000600281111561022d5761022c611095565b5b81526020018481526020016040518060200160405280600081525081526020016000151581526020013373ffffffffffffffffffffffffffffffffffffffff1681526020016000600181111561028657610285611095565b5b815250905060028190806001815401808255809150506001900390600052602060002090600702016000909190919091506000820151816000015560208201518160010160006101000a81548160ff021916908360ff1602179055506040820151816002015560608201518160030160006101000a81548160ff0219169083600281111561031757610316611095565b5b02179055506080820151816004019081610331919061189c565b5060a0820151816005019081610347919061189c565b5060c08201518160060160006101000a81548160ff02191690831515021790555060e08201518160060160016101000a81548173ffffffffffffffffffffffffffffffffffffffff021916908373ffffffffffffffffffffffffffffffffffffffff1602179055506101008201518160060160156101000a81548160ff021916908360018111156103db576103da611095565b5b021790555050506001600360003373ffffffffffffffffffffffffffffffffffffffff1673ffffffffffffffffffffffffffffffffffffffff168152602001908152602001600020819055506001600081548092919061043a9061196e565b9190505550505050505050565b6001600360003373ffffffffffffffffffffffffffffffffffffffff1673ffffffffffffffffffffffffffffffffffffffff16815260200190815260200160002054146104c9576040517f08c379a00000000000000000000000000000000000000000000000000000000081526004016104c090611a28565b60405180910390fd5b8060026001846104d99190611a48565b815481106104ea576104e9611a7c565b5b906000526020600020906007020160030160006101000a81548160ff0219169083600281111561051d5761051c611095565b5b02179055505050565b6001600360003373ffffffffffffffffffffffffffffffffffffffff1673ffffffffffffffffffffffffffffffffffffffff16815260200190815260200160002054146105a8576040517f08c379a000000000000000000000000000000000000000000000000000000000815260040161059f90611a28565b60405180910390fd5b8060026001846105b89190611a48565b815481106105c9576105c8611a7c565b5b906000526020600020906007020160060160006101000a81548160ff0219169083151502179055505050565b60606002805480602002602001604051908101604052809291908181526020016000905b82821015610888578382906000526020600020906007020160405180610120016040529081600082015481526020016001820160009054906101000a900460ff1660ff1660ff168152602001600282015481526020016003820160009054906101000a900460ff16600281111561069357610692611095565b5b60028111156106a5576106a4611095565b5b81526020016004820180546106b9906116bf565b80601f01602080910402602001604051908101604052809291908181526020018280546106e5906116bf565b80156107325780601f1061070757610100808354040283529160200191610732565b820191906000526020600020905b81548152906001019060200180831161071557829003601f168201915b5050505050815260200160058201805461074b906116bf565b80601f0160208091040260200160405190810160405280929190818152602001828054610777906116bf565b80156107c45780601f10610799576101008083540402835291602001916107c4565b820191906000526020600020905b8154815290600101906020018083116107a757829003601f168201915b505050505081526020016006820160009054906101000a900460ff161515151581526020016006820160019054906101000a900473ffffffffffffffffffffffffffffffffffffffff1673ffffffffffffffffffffffffffffffffffffffff1673ffffffffffffffffffffffffffffffffffffffff1681526020016006820160159054906101000a900460ff16600181111561086357610862611095565b5b600181111561087557610874611095565b5b8152505081526020019060010190610619565b50505050905090565b6000604051806101200160405280600180546108ad919061165c565b81526020018860ff1681526020018781526020018460028111156108d4576108d3611095565b5b815260200186815260200185815260200183151581526020013373ffffffffffffffffffffffffffffffffffffffff16815260200160018081111561091c5761091b611095565b5b815250905060028190806001815401808255809150506001900390600052602060002090600702016000909190919091506000820151816000015560208201518160010160006101000a81548160ff021916908360ff1602179055506040820151816002015560608201518160030160006101000a81548160ff021916908360028111156109ad576109ac611095565b5b021790555060808201518160040190816109c7919061189c565b5060a08201518160050190816109dd919061189c565b5060c08201518160060160006101000a81548160ff02191690831515021790555060e08201518160060160016101000a81548173ffffffffffffffffffffffffffffffffffffffff021916908373ffffffffffffffffffffffffffffffffffffffff1602179055506101008201518160060160156101000a81548160ff02191690836001811115610a7157610a70611095565b5b021790555050506000600360003373ffffffffffffffffffffffffffffffffffffffff1673ffffffffffffffffffffffffffffffffffffffff1681526020019081526020016000208190555060016000815480929190610ad09061196e565b919050555050505050505050565b60008054906101000a900473ffffffffffffffffffffffffffffffffffffffff1681565b60028181548110610b1257600080fd5b90600052602060002090600702016000915090508060000154908060010160009054906101000a900460ff16908060020154908060030160009054906101000a900460ff1690806004018054610b67906116bf565b80601f0160208091040260200160405190810160405280929190818152602001828054610b93906116bf565b8015610be05780601f10610bb557610100808354040283529160200191610be0565b820191906000526020600020905b815481529060010190602001808311610bc357829003601f168201915b505050505090806005018054610bf5906116bf565b80601f0160208091040260200160405190810160405280929190818152602001828054610c21906116bf565b8015610c6e5780601f10610c4357610100808354040283529160200191610c6e565b820191906000526020600020905b815481529060010190602001808311610c5157829003601f168201915b5050505050908060060160009054906101000a900460ff16908060060160019054906101000a900473ffffffffffffffffffffffffffffffffffffffff16908060060160159054906101000a900460ff16905089565b6000604051905090565b600080fd5b600080fd5b600073ffffffffffffffffffffffffffffffffffffffff82169050919050565b6000610d0382610cd8565b9050919050565b610d1381610cf8565b8114610d1e57600080fd5b50565b600081359050610d3081610d0a565b92915050565b600060ff82169050919050565b610d4c81610d36565b8114610d5757600080fd5b50565b600081359050610d6981610d43565b92915050565b6000819050919050565b610d8281610d6f565b8114610d8d57600080fd5b50565b600081359050610d9f81610d79565b92915050565b600080fd5b600080fd5b6000601f19601f8301169050919050565b7f4e487b7100000000000000000000000000000000000000000000000000000000600052604160045260246000fd5b610df882610daf565b810181811067ffffffffffffffff82111715610e1757610e16610dc0565b5b80604052505050565b6000610e2a610cc4565b9050610e368282610def565b919050565b600067ffffffffffffffff821115610e5657610e55610dc0565b5b610e5f82610daf565b9050602081019050919050565b82818337600083830152505050565b6000610e8e610e8984610e3b565b610e20565b905082815260208101848484011115610eaa57610ea9610daa565b5b610eb5848285610e6c565b509392505050565b600082601f830112610ed257610ed1610da5565b5b8135610ee2848260208601610e7b565b91505092915050565b60008060008060808587031215610f0557610f04610cce565b5b6000610f1387828801610d21565b9450506020610f2487828801610d5a565b9350506040610f3587828801610d90565b925050606085013567ffffffffffffffff811115610f5657610f55610cd3565b5b610f6287828801610ebd565b91505092959194509250565b60038110610f7b57600080fd5b50565b600081359050610f8d81610f6e565b92915050565b60008060408385031215610faa57610fa9610cce565b5b6000610fb885828601610d90565b9250506020610fc985828601610f7e565b9150509250929050565b60008115159050919050565b610fe881610fd3565b8114610ff357600080fd5b50565b60008135905061100581610fdf565b92915050565b6000806040838503121561102257611021610cce565b5b600061103085828601610d90565b925050602061104185828601610ff6565b9150509250929050565b600081519050919050565b600082825260208201905092915050565b6000819050602082019050919050565b61108081610d6f565b82525050565b61108f81610d36565b82525050565b7f4e487b7100000000000000000000000000000000000000000000000000000000600052602160045260246000fd5b600381106110d5576110d4611095565b5b50565b60008190506110e6826110c4565b919050565b60006110f6826110d8565b9050919050565b611106816110eb565b82525050565b600081519050919050565b600082825260208201905092915050565b60005b8381101561114657808201518184015260208101905061112b565b60008484015250505050565b600061115d8261110c565b6111678185611117565b9350611177818560208601611128565b61118081610daf565b840191505092915050565b61119481610fd3565b82525050565b6111a381610cf8565b82525050565b600281106111ba576111b9611095565b5b50565b60008190506111cb826111a9565b919050565b60006111db826111bd565b9050919050565b6111eb816111d0565b82525050565b60006101208301600083015161120a6000860182611077565b50602083015161121d6020860182611086565b5060408301516112306040860182611077565b50606083015161124360608601826110fd565b506080830151848203608086015261125b8282611152565b91505060a083015184820360a08601526112758282611152565b91505060c083015161128a60c086018261118b565b5060e083015161129d60e086018261119a565b506101008301516112b26101008601826111e2565b508091505092915050565b60006112c983836111f1565b905092915050565b6000602082019050919050565b60006112e98261104b565b6112f38185611056565b93508360208202850161130585611067565b8060005b85811015611341578484038952815161132285826112bd565b945061132d836112d1565b925060208a01995050600181019050611309565b50829750879550505050505092915050565b6000602082019050818103600083015261136d81846112de565b905092915050565b60008060008060008060c0878903121561139257611391610cce565b5b60006113a089828a01610d5a565b96505060206113b189828a01610d90565b955050604087013567ffffffffffffffff8111156113d2576113d1610cd3565b5b6113de89828a01610ebd565b945050606087013567ffffffffffffffff8111156113ff576113fe610cd3565b5b61140b89828a01610ebd565b935050608061141c89828a01610f7e565b92505060a061142d89828a01610ff6565b9150509295509295509295565b61144381610cf8565b82525050565b600060208201905061145e600083018461143a565b92915050565b60006020828403121561147a57611479610cce565b5b600061148884828501610d90565b91505092915050565b61149a81610d6f565b82525050565b6114a981610d36565b82525050565b6114b8816110eb565b82525050565b600082825260208201905092915050565b60006114da8261110c565b6114e481856114be565b93506114f4818560208601611128565b6114fd81610daf565b840191505092915050565b61151181610fd3565b82525050565b611520816111d0565b82525050565b60006101208201905061153c600083018c611491565b611549602083018b6114a0565b611556604083018a611491565b61156360608301896114af565b818103608083015261157581886114cf565b905081810360a083015261158981876114cf565b905061159860c0830186611508565b6115a560e083018561143a565b6115b3610100830184611517565b9a9950505050505050505050565b7f496e76616c6964207265666572656e6365206164647265737321000000000000600082015250565b60006115f7601a836114be565b9150611602826115c1565b602082019050919050565b60006020820190508181036000830152611626816115ea565b9050919050565b7f4e487b7100000000000000000000000000000000000000000000000000000000600052601160045260246000fd5b600061166782610d6f565b915061167283610d6f565b925082820190508082111561168a5761168961162d565b5b92915050565b7f4e487b7100000000000000000000000000000000000000000000000000000000600052602260045260246000fd5b600060028204905060018216806116d757607f821691505b6020821081036116ea576116e9611690565b5b50919050565b60008190508160005260206000209050919050565b60006020601f8301049050919050565b600082821b905092915050565b6000600883026117527fffffffffffffffffffffffffffffffffffffffffffffffffffffffffffffffff82611715565b61175c8683611715565b95508019841693508086168417925050509392505050565b6000819050919050565b600061179961179461178f84610d6f565b611774565b610d6f565b9050919050565b6000819050919050565b6117b38361177e565b6117c76117bf826117a0565b848454611722565b825550505050565b600090565b6117dc6117cf565b6117e78184846117aa565b505050565b5b8181101561180b576118006000826117d4565b6001810190506117ed565b5050565b601f82111561185057611821816116f0565b61182a84611705565b81016020851015611839578190505b61184d61184585611705565b8301826117ec565b50505b505050565b600082821c905092915050565b600061187360001984600802611855565b1980831691505092915050565b600061188c8383611862565b9150826002028217905092915050565b6118a58261110c565b67ffffffffffffffff8111156118be576118bd610dc0565b5b6118c882546116bf565b6118d382828561180f565b600060209050601f83116001811461190657600084156118f4578287015190505b6118fe8582611880565b865550611966565b601f198416611914866116f0565b60005b8281101561193c57848901518255600182019150602085019450602081019050611917565b868310156119595784890151611955601f891682611862565b8355505b6001600288020188555050505b505050505050565b600061197982610d6f565b91507fffffffffffffffffffffffffffffffffffffffffffffffffffffffffffffffff82036119ab576119aa61162d565b5b600182019050919050565b7f4f6e6c792061646d696e2063616e2061636365737320746869732066756e637460008201527f696f6e0000000000000000000000000000000000000000000000000000000000602082015250565b6000611a126023836114be565b9150611a1d826119b6565b604082019050919050565b60006020820190508181036000830152611a4181611a05565b9050919050565b6000611a5382610d6f565b9150611a5e83610d6f565b9250828203905081811115611a7657611a7561162d565b5b92915050565b7f4e487b7100000000000000000000000000000000000000000000000000000000600052603260045260246000fdfea26469706673582212203b4beb3be253ffad0bc9785495b64da6b4fa0d2b67f4635a4c8cbc16124b837364736f6c63430008110033",
  "immutableReferences": {},
  "source": "// SPDX-License-Identifier: MIT\r\npragma solidity 0.8.17;\r\n\r\n// Admin, Patient\r\n\r\ncontract PatientManagement {\r\n    address public ownerAddress;\r\n\r\n    uint internal initialPatientId = 0;\r\n\r\n    User[] public patientList;\r\n    mapping(address => uint) isAdmin;\r\n\r\n    struct User {\r\n        uint256 patientId;\r\n        uint8 age;\r\n        uint256 gender; // 1 - male, 2- female;\r\n        VaccineStatus vaccineStatus; // 0, 1, 2\r\n        string district;\r\n        string symptomsDetails;\r\n        bool isDead;\r\n        address patientAddress;\r\n        UserType userType;\r\n    }\r\n    enum VaccineStatus {\r\n        not_vaccinated,\r\n        one_dose,\r\n        two_dose\r\n    }\r\n    enum UserType {\r\n        admin,\r\n        patient\r\n    }\r\n\r\n    modifier onlyAdminAccess() {\r\n        require(\r\n            isAdmin[msg.sender] == 1,\r\n            \"Only admin can access this function\"\r\n        );\r\n        _;\r\n    }\r\n\r\n    modifier validRefAdminAddress(address _refAddress) {\r\n        require(isAdmin[_refAddress] == 1, \"Invalid reference address!\");\r\n        _;\r\n    }\r\n\r\n    constructor() {\r\n        ownerAddress = msg.sender;\r\n        patientList.push(\r\n            User(\r\n                1,\r\n                25,\r\n                1,\r\n                VaccineStatus.not_vaccinated,\r\n                \"Dhaka\",\r\n                \"Headache\",\r\n                false,\r\n                ownerAddress,\r\n                UserType.admin\r\n            )\r\n        );\r\n        isAdmin[ownerAddress] = 1;\r\n    }\r\n\r\n    // Storing patient data\r\n    function storePatientData(\r\n        uint8 _age,\r\n        uint256 _gender,\r\n        string memory _district,\r\n        string memory _symptomsDetails,\r\n        VaccineStatus _vaccineStatus,\r\n        bool _isDead\r\n    ) public {\r\n        User memory tempPatient = User(\r\n            initialPatientId + 1,\r\n            _age,\r\n            _gender,\r\n            _vaccineStatus,\r\n            _district,\r\n            _symptomsDetails,\r\n            _isDead,\r\n            msg.sender,\r\n            UserType.patient\r\n        );\r\n\r\n        patientList.push(tempPatient);\r\n        isAdmin[msg.sender] = 0;\r\n        initialPatientId++;\r\n    }\r\n\r\n    function storeAdminData(\r\n        address _refAdminAddress,\r\n        uint8 _age,\r\n        uint256 _gender,\r\n        string memory _district\r\n    ) public validRefAdminAddress(_refAdminAddress) {\r\n        User memory tempPatient = User(\r\n            initialPatientId + 1,\r\n            _age,\r\n            _gender,\r\n            VaccineStatus.not_vaccinated,\r\n            _district,\r\n            \"\",\r\n            false,\r\n            msg.sender,\r\n            UserType.admin\r\n        );\r\n\r\n        patientList.push(tempPatient);\r\n        isAdmin[msg.sender] = 1;\r\n        initialPatientId++;\r\n    }\r\n\r\n    function updateVaccineStatus(\r\n        uint _patientId,\r\n        VaccineStatus _vaccineStatus\r\n    ) public onlyAdminAccess {\r\n        patientList[_patientId - 1].vaccineStatus = _vaccineStatus;\r\n    }\r\n\r\n    function updateDeadStatus(\r\n        uint _patientId,\r\n        bool _deadStatus\r\n    ) public onlyAdminAccess {\r\n        patientList[_patientId - 1].isDead = _deadStatus;\r\n    }\r\n\r\n    function getPatientDataList() public view returns (User[] memory) {\r\n        return patientList;\r\n    }\r\n}\r\n",
  "sourcePath": "F:\\BRAC\\CSE446\\Eth Project\\patient-management-dapp\\contracts\\patientManagement.sol",
  "compiler": {
    "name": "solc",
    "version": "0.8.17+commit.8df45f5f.Emscripten.clang"
  },
  "schemaVersion": "3.4.16",
  "updatedAt": "2024-04-14T00:53:52.037Z",
  "networkType": "ethereum",
  "devdoc": {
    "kind": "dev",
    "methods": {},
    "version": 1
  },
  "userdoc": {
    "kind": "user",
    "methods": {},
    "version": 1
  }
}