{
  "contractName": "PatientManagement",
  "abi": [
    {
      "inputs": [],
      "stateMutability": "nonpayable",
      "type": "constructor"
    },
    {
      "anonymous": false,
      "inputs": [
        {
          "indexed": false,
          "internalType": "uint256",
          "name": "patientId",
          "type": "uint256"
        },
        {
          "indexed": false,
          "internalType": "bool",
          "name": "isDead",
          "type": "bool"
        }
      ],
      "name": "updatedDeadStatus",
      "type": "event"
    },
    {
      "anonymous": false,
      "inputs": [
        {
          "indexed": false,
          "internalType": "uint256",
          "name": "patientId",
          "type": "uint256"
        },
        {
          "indexed": false,
          "internalType": "enum PatientManagement.VaccineStatus",
          "name": "vaccineStatus",
          "type": "uint8"
        }
      ],
      "name": "updatedVaccineStatus",
      "type": "event"
    },
    {
      "inputs": [],
      "name": "ownerAddress",
      "outputs": [
        {
          "internalType": "address",
          "name": "",
          "type": "address"
        }
      ],
      "stateMutability": "view",
      "type": "function",
      "constant": true
    },
    {
      "inputs": [
        {
          "internalType": "uint256",
          "name": "",
          "type": "uint256"
        }
      ],
      "name": "patientList",
      "outputs": [
        {
          "internalType": "uint256",
          "name": "patientId",
          "type": "uint256"
        },
        {
          "internalType": "uint8",
          "name": "age",
          "type": "uint8"
        },
        {
          "internalType": "uint256",
          "name": "gender",
          "type": "uint256"
        },
        {
          "internalType": "enum PatientManagement.VaccineStatus",
          "name": "vaccineStatus",
          "type": "uint8"
        },
        {
          "internalType": "string",
          "name": "district",
          "type": "string"
        },
        {
          "internalType": "string",
          "name": "symptomsDetails",
          "type": "string"
        },
        {
          "internalType": "bool",
          "name": "isDead",
          "type": "bool"
        },
        {
          "internalType": "address",
          "name": "patientAddress",
          "type": "address"
        },
        {
          "internalType": "enum PatientManagement.UserType",
          "name": "userType",
          "type": "uint8"
        }
      ],
      "stateMutability": "view",
      "type": "function",
      "constant": true
    },
    {
      "inputs": [
        {
          "internalType": "uint8",
          "name": "_age",
          "type": "uint8"
        },
        {
          "internalType": "uint256",
          "name": "_gender",
          "type": "uint256"
        },
        {
          "internalType": "string",
          "name": "_district",
          "type": "string"
        },
        {
          "internalType": "string",
          "name": "_symptomsDetails",
          "type": "string"
        },
        {
          "internalType": "enum PatientManagement.VaccineStatus",
          "name": "_vaccineStatus",
          "type": "uint8"
        },
        {
          "internalType": "bool",
          "name": "_isDead",
          "type": "bool"
        }
      ],
      "name": "storePatientData",
      "outputs": [],
      "stateMutability": "nonpayable",
      "type": "function"
    },
    {
      "inputs": [
        {
          "internalType": "address",
          "name": "_refAdminAddress",
          "type": "address"
        },
        {
          "internalType": "uint8",
          "name": "_age",
          "type": "uint8"
        },
        {
          "internalType": "uint256",
          "name": "_gender",
          "type": "uint256"
        },
        {
          "internalType": "string",
          "name": "_district",
          "type": "string"
        }
      ],
      "name": "storeAdminData",
      "outputs": [],
      "stateMutability": "nonpayable",
      "type": "function"
    },
    {
      "inputs": [
        {
          "internalType": "uint256",
          "name": "_patientId",
          "type": "uint256"
        },
        {
          "internalType": "enum PatientManagement.VaccineStatus",
          "name": "_vaccineStatus",
          "type": "uint8"
        }
      ],
      "name": "updateVaccineStatus",
      "outputs": [],
      "stateMutability": "nonpayable",
      "type": "function"
    },
    {
      "inputs": [
        {
          "internalType": "uint256",
          "name": "_patientId",
          "type": "uint256"
        },
        {
          "internalType": "bool",
          "name": "_deadStatus",
          "type": "bool"
        }
      ],
      "name": "updateDeadStatus",
      "outputs": [],
      "stateMutability": "nonpayable",
      "type": "function"
    },
    {
      "inputs": [],
      "name": "getPatientDataList",
      "outputs": [
        {
          "components": [
            {
              "internalType": "uint256",
              "name": "patientId",
              "type": "uint256"
            },
            {
              "internalType": "uint8",
              "name": "age",
              "type": "uint8"
            },
            {
              "internalType": "uint256",
              "name": "gender",
              "type": "uint256"
            },
            {
              "internalType": "enum PatientManagement.VaccineStatus",
              "name": "vaccineStatus",
              "type": "uint8"
            },
            {
              "internalType": "string",
              "name": "district",
              "type": "string"
            },
            {
              "internalType": "string",
              "name": "symptomsDetails",
              "type": "string"
            },
            {
              "internalType": "bool",
              "name": "isDead",
              "type": "bool"
            },
            {
              "internalType": "address",
              "name": "patientAddress",
              "type": "address"
            },
            {
              "internalType": "enum PatientManagement.UserType",
              "name": "userType",
              "type": "uint8"
            }
          ],
          "internalType": "struct PatientManagement.User[]",
          "name": "",
          "type": "tuple[]"
        }
      ],
      "stateMutability": "view",
      "type": "function",
      "constant": true
    },
    {
      "inputs": [
        {
          "internalType": "address",
          "name": "_adminAddress",
          "type": "address"
        }
      ],
      "name": "checkIfAdmin",
      "outputs": [
        {
          "internalType": "bool",
          "name": "",
          "type": "bool"
        }
      ],
      "stateMutability": "view",
      "type": "function",
      "constant": true
    },
    {
      "inputs": [
        {
          "internalType": "address",
          "name": "_patientAddress",
          "type": "address"
        }
      ],
      "name": "checkIfAlreadyPatient",
      "outputs": [
        {
          "internalType": "bool",
          "name": "",
          "type": "bool"
        }
      ],
      "stateMutability": "view",
      "type": "function",
      "constant": true
    }
  ],
  "bytecode": "0x608060405260006001553480156200001657600080fd5b50336000806101000a81548173ffffffffffffffffffffffffffffffffffffffff021916908373ffffffffffffffffffffffffffffffffffffffff16021790555060026040518061012001604052806001548152602001601960ff168152602001600181526020016000600281111562000095576200009462000f48565b5b81526020016040518060400160405280600581526020017f4468616b6100000000000000000000000000000000000000000000000000000081525081526020016040518060400160405280600881526020017f4865616461636865000000000000000000000000000000000000000000000000815250815260200160001515815260200160008054906101000a900473ffffffffffffffffffffffffffffffffffffffff1673ffffffffffffffffffffffffffffffffffffffff168152602001600060018111156200016c576200016b62000f48565b5b81525090806001815401808255809150506001900390600052602060002090600702016000909190919091506000820151816000015560208201518160010160006101000a81548160ff021916908360ff1602179055506040820151816002015560608201518160030160006101000a81548160ff02191690836002811115620001fb57620001fa62000f48565b5b02179055506080820151816004019081620002179190620011f1565b5060a08201518160050190816200022f9190620011f1565b5060c08201518160060160006101000a81548160ff02191690831515021790555060e08201518160060160016101000a81548173ffffffffffffffffffffffffffffffffffffffff021916908373ffffffffffffffffffffffffffffffffffffffff1602179055506101008201518160060160156101000a81548160ff02191690836001811115620002c657620002c562000f48565b5b02179055505050600260405180610120016040528060018152602001601260ff16815260200160028152602001600160028111156200030a576200030962000f48565b5b81526020016040518060400160405280600a81526020017f436869747461676f6e670000000000000000000000000000000000000000000081525081526020016040518060400160405280601681526020017f436f7567682c2046657665722c20486561646163686500000000000000000000815250815260200160001515815260200173d8e9698dba5df92882478e5f049b2666b00120d073ffffffffffffffffffffffffffffffffffffffff168152602001600180811115620003d457620003d362000f48565b5b81525090806001815401808255809150506001900390600052602060002090600702016000909190919091506000820151816000015560208201518160010160006101000a81548160ff021916908360ff1602179055506040820151816002015560608201518160030160006101000a81548160ff0219169083600281111562000463576200046262000f48565b5b021790555060808201518160040190816200047f9190620011f1565b5060a0820151816005019081620004979190620011f1565b5060c08201518160060160006101000a81548160ff02191690831515021790555060e08201518160060160016101000a81548173ffffffffffffffffffffffffffffffffffffffff021916908373ffffffffffffffffffffffffffffffffffffffff1602179055506101008201518160060160156101000a81548160ff021916908360018111156200052e576200052d62000f48565b5b02179055505050600260405180610120016040528060028152602001605260ff168152602001600281526020016001600281111562000572576200057162000f48565b5b81526020016040518060400160405280600a81526020017f436869747461676f6e670000000000000000000000000000000000000000000081525081526020016040518060400160405280600c81526020017f46657665722c20436f756768000000000000000000000000000000000000000081525081526020016000151581526020017367a3688404800d48554448853e6e7028edb8def973ffffffffffffffffffffffffffffffffffffffff1681526020016001808111156200063c576200063b62000f48565b5b81525090806001815401808255809150506001900390600052602060002090600702016000909190919091506000820151816000015560208201518160010160006101000a81548160ff021916908360ff1602179055506040820151816002015560608201518160030160006101000a81548160ff02191690836002811115620006cb57620006ca62000f48565b5b02179055506080820151816004019081620006e79190620011f1565b5060a0820151816005019081620006ff9190620011f1565b5060c08201518160060160006101000a81548160ff02191690831515021790555060e08201518160060160016101000a81548173ffffffffffffffffffffffffffffffffffffffff021916908373ffffffffffffffffffffffffffffffffffffffff1602179055506101008201518160060160156101000a81548160ff0219169083600181111562000796576200079562000f48565b5b02179055505050600260405180610120016040528060038152602001600c60ff16815260200160018152602001600280811115620007d957620007d862000f48565b5b81526020016040518060400160405280600881526020017f52616a736861686900000000000000000000000000000000000000000000000081525081526020016040518060400160405280601681526020017f466174696775652c204c6f7373206f6620546173746500000000000000000000815250815260200160011515815260200173232dccb4f2a2e57d085832aa8151acd4da5ec0cc73ffffffffffffffffffffffffffffffffffffffff168152602001600180811115620008a357620008a262000f48565b5b81525090806001815401808255809150506001900390600052602060002090600702016000909190919091506000820151816000015560208201518160010160006101000a81548160ff021916908360ff1602179055506040820151816002015560608201518160030160006101000a81548160ff0219169083600281111562000932576200093162000f48565b5b021790555060808201518160040190816200094e9190620011f1565b5060a0820151816005019081620009669190620011f1565b5060c08201518160060160006101000a81548160ff02191690831515021790555060e08201518160060160016101000a81548173ffffffffffffffffffffffffffffffffffffffff021916908373ffffffffffffffffffffffffffffffffffffffff1602179055506101008201518160060160156101000a81548160ff02191690836001811115620009fd57620009fc62000f48565b5b02179055505050600260405180610120016040528060048152602001601c60ff168152602001600281526020016000600281111562000a415762000a4062000f48565b5b81526020016040518060400160405280600681526020017f4b68756c6e61000000000000000000000000000000000000000000000000000081525081526020016040518060400160405280601781526020017f426f64792041636865732c20536f7265205468726f617400000000000000000081525081526020016000151581526020017354a231904e3d11447676bf6025af24035401122873ffffffffffffffffffffffffffffffffffffffff16815260200160018081111562000b0b5762000b0a62000f48565b5b81525090806001815401808255809150506001900390600052602060002090600702016000909190919091506000820151816000015560208201518160010160006101000a81548160ff021916908360ff1602179055506040820151816002015560608201518160030160006101000a81548160ff0219169083600281111562000b9a5762000b9962000f48565b5b0217905550608082015181600401908162000bb69190620011f1565b5060a082015181600501908162000bce9190620011f1565b5060c08201518160060160006101000a81548160ff02191690831515021790555060e08201518160060160016101000a81548173ffffffffffffffffffffffffffffffffffffffff021916908373ffffffffffffffffffffffffffffffffffffffff1602179055506101008201518160060160156101000a81548160ff0219169083600181111562000c655762000c6462000f48565b5b02179055505050600260405180610120016040528060058152602001602d60ff168152602001600181526020016001600281111562000ca95762000ca862000f48565b5b81526020016040518060400160405280600581526020017f4468616b6100000000000000000000000000000000000000000000000000000081525081526020016040518060400160405280601d81526020017f53686f72746e657373206f66204272656174682c204469617272686561000000815250815260200160001515815260200173a43caed907c2987e655e5fff06800021dccc356b73ffffffffffffffffffffffffffffffffffffffff16815260200160018081111562000d735762000d7262000f48565b5b81525090806001815401808255809150506001900390600052602060002090600702016000909190919091506000820151816000015560208201518160010160006101000a81548160ff021916908360ff1602179055506040820151816002015560608201518160030160006101000a81548160ff0219169083600281111562000e025762000e0162000f48565b5b0217905550608082015181600401908162000e1e9190620011f1565b5060a082015181600501908162000e369190620011f1565b5060c08201518160060160006101000a81548160ff02191690831515021790555060e08201518160060160016101000a81548173ffffffffffffffffffffffffffffffffffffffff021916908373ffffffffffffffffffffffffffffffffffffffff1602179055506101008201518160060160156101000a81548160ff0219169083600181111562000ecd5762000ecc62000f48565b5b021790555050506001600360008060009054906101000a900473ffffffffffffffffffffffffffffffffffffffff1673ffffffffffffffffffffffffffffffffffffffff1673ffffffffffffffffffffffffffffffffffffffff168152602001908152602001600020819055506005600181905550620012d8565b7f4e487b7100000000000000000000000000000000000000000000000000000000600052602160045260246000fd5b600081519050919050565b7f4e487b7100000000000000000000000000000000000000000000000000000000600052604160045260246000fd5b7f4e487b7100000000000000000000000000000000000000000000000000000000600052602260045260246000fd5b6000600282049050600182168062000ff957607f821691505b6020821081036200100f576200100e62000fb1565b5b50919050565b60008190508160005260206000209050919050565b60006020601f8301049050919050565b600082821b905092915050565b600060088302620010797fffffffffffffffffffffffffffffffffffffffffffffffffffffffffffffffff826200103a565b6200108586836200103a565b95508019841693508086168417925050509392505050565b6000819050919050565b6000819050919050565b6000620010d2620010cc620010c6846200109d565b620010a7565b6200109d565b9050919050565b6000819050919050565b620010ee83620010b1565b62001106620010fd82620010d9565b84845462001047565b825550505050565b600090565b6200111d6200110e565b6200112a818484620010e3565b505050565b5b8181101562001152576200114660008262001113565b60018101905062001130565b5050565b601f821115620011a1576200116b8162001015565b62001176846200102a565b8101602085101562001186578190505b6200119e62001195856200102a565b8301826200112f565b50505b505050565b600082821c905092915050565b6000620011c660001984600802620011a6565b1980831691505092915050565b6000620011e18383620011b3565b9150826002028217905092915050565b620011fc8262000f77565b67ffffffffffffffff81111562001218576200121762000f82565b5b62001224825462000fe0565b6200123182828562001156565b600060209050601f83116001811462001269576000841562001254578287015190505b620012608582620011d3565b865550620012d0565b601f198416620012798662001015565b60005b82811015620012a3578489015182556001820191506020850194506020810190506200127c565b86831015620012c35784890151620012bf601f891682620011b3565b8355505b6001600288020188555050505b505050505050565b611e0480620012e86000396000f3fe608060405234801561001057600080fd5b50600436106100935760003560e01c80638663759c116100665780638663759c1461011c5780638eed5c5f1461013a5780638f84aa0914610156578063babb1d4114610174578063d9fa9c1a146101ac57610093565b8063447b618f146100985780634d855be5146100b4578063602de8c4146100e457806384825f8314610100575b600080fd5b6100b260048036038101906100ad919061113c565b6101dc565b005b6100ce60048036038101906100c991906111bf565b6104bd565b6040516100db9190611207565b60405180910390f35b6100fe60048036038101906100f99190611247565b610519565b005b61011a600480360381019061011591906112b3565b610625565b005b610124610721565b60405161013191906115fb565b60405180910390f35b610154600480360381019061014f919061161d565b6109bd565b005b61015e610cd3565b60405161016b91906116f1565b60405180910390f35b61018e6004803603810190610189919061170c565b610cf7565b6040516101a3999897969594939291906117bf565b60405180910390f35b6101c660048036038101906101c191906111bf565b610eb9565b6040516101d39190611207565b60405180910390f35b836001600360008373ffffffffffffffffffffffffffffffffffffffff1673ffffffffffffffffffffffffffffffffffffffff168152602001908152602001600020541461025f576040517f08c379a0000000000000000000000000000000000000000000000000000000008152600401610256906118a6565b60405180910390fd5b60006040518061012001604052806001805461027b91906118f5565b81526020018660ff168152602001858152602001600060028111156102a3576102a261133d565b5b81526020018481526020016040518060200160405280600081525081526020016000151581526020013373ffffffffffffffffffffffffffffffffffffffff168152602001600060018111156102fc576102fb61133d565b5b815250905060028190806001815401808255809150506001900390600052602060002090600702016000909190919091506000820151816000015560208201518160010160006101000a81548160ff021916908360ff1602179055506040820151816002015560608201518160030160006101000a81548160ff0219169083600281111561038d5761038c61133d565b5b021790555060808201518160040190816103a79190611b35565b5060a08201518160050190816103bd9190611b35565b5060c08201518160060160006101000a81548160ff02191690831515021790555060e08201518160060160016101000a81548173ffffffffffffffffffffffffffffffffffffffff021916908373ffffffffffffffffffffffffffffffffffffffff1602179055506101008201518160060160156101000a81548160ff021916908360018111156104515761045061133d565b5b021790555050506001600360003373ffffffffffffffffffffffffffffffffffffffff1673ffffffffffffffffffffffffffffffffffffffff16815260200190815260200160002081905550600160008154809291906104b090611c07565b9190505550505050505050565b60006001600460008473ffffffffffffffffffffffffffffffffffffffff1673ffffffffffffffffffffffffffffffffffffffff168152602001908152602001600020540361050f5760019050610514565b600090505b919050565b6001600360003373ffffffffffffffffffffffffffffffffffffffff1673ffffffffffffffffffffffffffffffffffffffff168152602001908152602001600020541461059b576040517f08c379a000000000000000000000000000000000000000000000000000000000815260040161059290611cc1565b60405180910390fd5b80600283815481106105b0576105af611ce1565b5b906000526020600020906007020160030160006101000a81548160ff021916908360028111156105e3576105e261133d565b5b02179055507f28f4553db92f9508f7a069dbeda084ec142b58bbf20e31108427aea51cbca85a8282604051610619929190611d10565b60405180910390a15050565b6001600360003373ffffffffffffffffffffffffffffffffffffffff1673ffffffffffffffffffffffffffffffffffffffff16815260200190815260200160002054146106a7576040517f08c379a000000000000000000000000000000000000000000000000000000000815260040161069e90611cc1565b60405180910390fd5b80600283815481106106bc576106bb611ce1565b5b906000526020600020906007020160060160006101000a81548160ff0219169083151502179055507f0b533c80b1d251025d417e75ae2d7ab58fa2ed43bc8714d988b640f138e5e4a38282604051610715929190611d39565b60405180910390a15050565b60606002805480602002602001604051908101604052809291908181526020016000905b828210156109b4578382906000526020600020906007020160405180610120016040529081600082015481526020016001820160009054906101000a900460ff1660ff1660ff168152602001600282015481526020016003820160009054906101000a900460ff1660028111156107bf576107be61133d565b5b60028111156107d1576107d061133d565b5b81526020016004820180546107e590611958565b80601f016020809104026020016040519081016040528092919081815260200182805461081190611958565b801561085e5780601f106108335761010080835404028352916020019161085e565b820191906000526020600020905b81548152906001019060200180831161084157829003601f168201915b5050505050815260200160058201805461087790611958565b80601f01602080910402602001604051908101604052809291908181526020018280546108a390611958565b80156108f05780601f106108c5576101008083540402835291602001916108f0565b820191906000526020600020905b8154815290600101906020018083116108d357829003601f168201915b505050505081526020016006820160009054906101000a900460ff161515151581526020016006820160019054906101000a900473ffffffffffffffffffffffffffffffffffffffff1673ffffffffffffffffffffffffffffffffffffffff1673ffffffffffffffffffffffffffffffffffffffff1681526020016006820160159054906101000a900460ff16600181111561098f5761098e61133d565b5b60018111156109a1576109a061133d565b5b8152505081526020019060010190610745565b50505050905090565b336000600460008373ffffffffffffffffffffffffffffffffffffffff1673ffffffffffffffffffffffffffffffffffffffff1681526020019081526020016000205414610a40576040517f08c379a0000000000000000000000000000000000000000000000000000000008152600401610a3790611dae565b60405180910390fd5b600060405180610120016040528060018054610a5c91906118f5565b81526020018960ff168152602001888152602001856002811115610a8357610a8261133d565b5b815260200187815260200186815260200184151581526020013373ffffffffffffffffffffffffffffffffffffffff168152602001600180811115610acb57610aca61133d565b5b815250905060028190806001815401808255809150506001900390600052602060002090600702016000909190919091506000820151816000015560208201518160010160006101000a81548160ff021916908360ff1602179055506040820151816002015560608201518160030160006101000a81548160ff02191690836002811115610b5c57610b5b61133d565b5b02179055506080820151816004019081610b769190611b35565b5060a0820151816005019081610b8c9190611b35565b5060c08201518160060160006101000a81548160ff02191690831515021790555060e08201518160060160016101000a81548173ffffffffffffffffffffffffffffffffffffffff021916908373ffffffffffffffffffffffffffffffffffffffff1602179055506101008201518160060160156101000a81548160ff02191690836001811115610c2057610c1f61133d565b5b021790555050506000600360003373ffffffffffffffffffffffffffffffffffffffff1673ffffffffffffffffffffffffffffffffffffffff168152602001908152602001600020819055506001600460003373ffffffffffffffffffffffffffffffffffffffff1673ffffffffffffffffffffffffffffffffffffffff1681526020019081526020016000208190555060016000815480929190610cc490611c07565b91905055505050505050505050565b60008054906101000a900473ffffffffffffffffffffffffffffffffffffffff1681565b60028181548110610d0757600080fd5b90600052602060002090600702016000915090508060000154908060010160009054906101000a900460ff16908060020154908060030160009054906101000a900460ff1690806004018054610d5c90611958565b80601f0160208091040260200160405190810160405280929190818152602001828054610d8890611958565b8015610dd55780601f10610daa57610100808354040283529160200191610dd5565b820191906000526020600020905b815481529060010190602001808311610db857829003601f168201915b505050505090806005018054610dea90611958565b80601f0160208091040260200160405190810160405280929190818152602001828054610e1690611958565b8015610e635780601f10610e3857610100808354040283529160200191610e63565b820191906000526020600020905b815481529060010190602001808311610e4657829003601f168201915b5050505050908060060160009054906101000a900460ff16908060060160019054906101000a900473ffffffffffffffffffffffffffffffffffffffff16908060060160159054906101000a900460ff16905089565b60006001600360008473ffffffffffffffffffffffffffffffffffffffff1673ffffffffffffffffffffffffffffffffffffffff1681526020019081526020016000205403610f0b5760019050610f10565b600090505b919050565b6000604051905090565b600080fd5b600080fd5b600073ffffffffffffffffffffffffffffffffffffffff82169050919050565b6000610f5482610f29565b9050919050565b610f6481610f49565b8114610f6f57600080fd5b50565b600081359050610f8181610f5b565b92915050565b600060ff82169050919050565b610f9d81610f87565b8114610fa857600080fd5b50565b600081359050610fba81610f94565b92915050565b6000819050919050565b610fd381610fc0565b8114610fde57600080fd5b50565b600081359050610ff081610fca565b92915050565b600080fd5b600080fd5b6000601f19601f8301169050919050565b7f4e487b7100000000000000000000000000000000000000000000000000000000600052604160045260246000fd5b61104982611000565b810181811067ffffffffffffffff8211171561106857611067611011565b5b80604052505050565b600061107b610f15565b90506110878282611040565b919050565b600067ffffffffffffffff8211156110a7576110a6611011565b5b6110b082611000565b9050602081019050919050565b82818337600083830152505050565b60006110df6110da8461108c565b611071565b9050828152602081018484840111156110fb576110fa610ffb565b5b6111068482856110bd565b509392505050565b600082601f83011261112357611122610ff6565b5b81356111338482602086016110cc565b91505092915050565b6000806000806080858703121561115657611155610f1f565b5b600061116487828801610f72565b945050602061117587828801610fab565b935050604061118687828801610fe1565b925050606085013567ffffffffffffffff8111156111a7576111a6610f24565b5b6111b38782880161110e565b91505092959194509250565b6000602082840312156111d5576111d4610f1f565b5b60006111e384828501610f72565b91505092915050565b60008115159050919050565b611201816111ec565b82525050565b600060208201905061121c60008301846111f8565b92915050565b6003811061122f57600080fd5b50565b60008135905061124181611222565b92915050565b6000806040838503121561125e5761125d610f1f565b5b600061126c85828601610fe1565b925050602061127d85828601611232565b9150509250929050565b611290816111ec565b811461129b57600080fd5b50565b6000813590506112ad81611287565b92915050565b600080604083850312156112ca576112c9610f1f565b5b60006112d885828601610fe1565b92505060206112e98582860161129e565b9150509250929050565b600081519050919050565b600082825260208201905092915050565b6000819050602082019050919050565b61132881610fc0565b82525050565b61133781610f87565b82525050565b7f4e487b7100000000000000000000000000000000000000000000000000000000600052602160045260246000fd5b6003811061137d5761137c61133d565b5b50565b600081905061138e8261136c565b919050565b600061139e82611380565b9050919050565b6113ae81611393565b82525050565b600081519050919050565b600082825260208201905092915050565b60005b838110156113ee5780820151818401526020810190506113d3565b60008484015250505050565b6000611405826113b4565b61140f81856113bf565b935061141f8185602086016113d0565b61142881611000565b840191505092915050565b61143c816111ec565b82525050565b61144b81610f49565b82525050565b600281106114625761146161133d565b5b50565b600081905061147382611451565b919050565b600061148382611465565b9050919050565b61149381611478565b82525050565b6000610120830160008301516114b2600086018261131f565b5060208301516114c5602086018261132e565b5060408301516114d8604086018261131f565b5060608301516114eb60608601826113a5565b506080830151848203608086015261150382826113fa565b91505060a083015184820360a086015261151d82826113fa565b91505060c083015161153260c0860182611433565b5060e083015161154560e0860182611442565b5061010083015161155a61010086018261148a565b508091505092915050565b60006115718383611499565b905092915050565b6000602082019050919050565b6000611591826112f3565b61159b81856112fe565b9350836020820285016115ad8561130f565b8060005b858110156115e957848403895281516115ca8582611565565b94506115d583611579565b925060208a019950506001810190506115b1565b50829750879550505050505092915050565b600060208201905081810360008301526116158184611586565b905092915050565b60008060008060008060c0878903121561163a57611639610f1f565b5b600061164889828a01610fab565b965050602061165989828a01610fe1565b955050604087013567ffffffffffffffff81111561167a57611679610f24565b5b61168689828a0161110e565b945050606087013567ffffffffffffffff8111156116a7576116a6610f24565b5b6116b389828a0161110e565b93505060806116c489828a01611232565b92505060a06116d589828a0161129e565b9150509295509295509295565b6116eb81610f49565b82525050565b600060208201905061170660008301846116e2565b92915050565b60006020828403121561172257611721610f1f565b5b600061173084828501610fe1565b91505092915050565b61174281610fc0565b82525050565b61175181610f87565b82525050565b61176081611393565b82525050565b600082825260208201905092915050565b6000611782826113b4565b61178c8185611766565b935061179c8185602086016113d0565b6117a581611000565b840191505092915050565b6117b981611478565b82525050565b6000610120820190506117d5600083018c611739565b6117e2602083018b611748565b6117ef604083018a611739565b6117fc6060830189611757565b818103608083015261180e8188611777565b905081810360a08301526118228187611777565b905061183160c08301866111f8565b61183e60e08301856116e2565b61184c6101008301846117b0565b9a9950505050505050505050565b7f496e76616c6964207265666572656e6365206164647265737321000000000000600082015250565b6000611890601a83611766565b915061189b8261185a565b602082019050919050565b600060208201905081810360008301526118bf81611883565b9050919050565b7f4e487b7100000000000000000000000000000000000000000000000000000000600052601160045260246000fd5b600061190082610fc0565b915061190b83610fc0565b9250828201905080821115611923576119226118c6565b5b92915050565b7f4e487b7100000000000000000000000000000000000000000000000000000000600052602260045260246000fd5b6000600282049050600182168061197057607f821691505b60208210810361198357611982611929565b5b50919050565b60008190508160005260206000209050919050565b60006020601f8301049050919050565b600082821b905092915050565b6000600883026119eb7fffffffffffffffffffffffffffffffffffffffffffffffffffffffffffffffff826119ae565b6119f586836119ae565b95508019841693508086168417925050509392505050565b6000819050919050565b6000611a32611a2d611a2884610fc0565b611a0d565b610fc0565b9050919050565b6000819050919050565b611a4c83611a17565b611a60611a5882611a39565b8484546119bb565b825550505050565b600090565b611a75611a68565b611a80818484611a43565b505050565b5b81811015611aa457611a99600082611a6d565b600181019050611a86565b5050565b601f821115611ae957611aba81611989565b611ac38461199e565b81016020851015611ad2578190505b611ae6611ade8561199e565b830182611a85565b50505b505050565b600082821c905092915050565b6000611b0c60001984600802611aee565b1980831691505092915050565b6000611b258383611afb565b9150826002028217905092915050565b611b3e826113b4565b67ffffffffffffffff811115611b5757611b56611011565b5b611b618254611958565b611b6c828285611aa8565b600060209050601f831160018114611b9f5760008415611b8d578287015190505b611b978582611b19565b865550611bff565b601f198416611bad86611989565b60005b82811015611bd557848901518255600182019150602085019450602081019050611bb0565b86831015611bf25784890151611bee601f891682611afb565b8355505b6001600288020188555050505b505050505050565b6000611c1282610fc0565b91507fffffffffffffffffffffffffffffffffffffffffffffffffffffffffffffffff8203611c4457611c436118c6565b5b600182019050919050565b7f4f6e6c792061646d696e2063616e2061636365737320746869732066756e637460008201527f696f6e0000000000000000000000000000000000000000000000000000000000602082015250565b6000611cab602383611766565b9150611cb682611c4f565b604082019050919050565b60006020820190508181036000830152611cda81611c9e565b9050919050565b7f4e487b7100000000000000000000000000000000000000000000000000000000600052603260045260246000fd5b6000604082019050611d256000830185611739565b611d326020830184611757565b9392505050565b6000604082019050611d4e6000830185611739565b611d5b60208301846111f8565b9392505050565b7f50617469656e7420416c72656164792045786973747321000000000000000000600082015250565b6000611d98601783611766565b9150611da382611d62565b602082019050919050565b60006020820190508181036000830152611dc781611d8b565b905091905056fea264697066735822122089c51cf30b5d7504faa7059b36d10b2cf7ef9d48849c0e15ec082888ebcd1a6a64736f6c63430008110033",
  "immutableReferences": {},
  "source": "// SPDX-License-Identifier: MIT\r\npragma solidity 0.8.17;\r\n\r\n// Admin, Patient\r\n\r\ncontract PatientManagement {\r\n    address public ownerAddress;\r\n\r\n    uint internal initialPatientId = 0;\r\n\r\n    User[] public patientList;\r\n    mapping(address => uint) isAdmin;\r\n    mapping(address => uint) isAlreadyPatient;\r\n    event updatedDeadStatus (uint patientId, bool isDead);\r\n    event updatedVaccineStatus (uint patientId, VaccineStatus vaccineStatus);\r\n\r\n    struct User {\r\n        uint256 patientId;\r\n        uint8 age;\r\n        uint256 gender; // 1 - male, 2- female;\r\n        VaccineStatus vaccineStatus; // 0, 1, 2\r\n        string district;\r\n        string symptomsDetails;\r\n        bool isDead;\r\n        address patientAddress;\r\n        UserType userType;\r\n    }\r\n    enum VaccineStatus {\r\n        not_vaccinated,\r\n        one_dose,\r\n        two_dose\r\n    }\r\n    enum UserType {\r\n        admin,\r\n        patient\r\n    }\r\n\r\n    modifier onlyAdminAccess() {\r\n        require(\r\n            isAdmin[msg.sender] == 1,\r\n            \"Only admin can access this function\"\r\n        );\r\n        _;\r\n    }\r\n\r\n    modifier validRefAdminAddress(address _refAddress) {\r\n        require(isAdmin[_refAddress] == 1, \"Invalid reference address!\");\r\n        _;\r\n    }\r\n\r\n    modifier validPatientAddress(address _patientAddress) {\r\n        require(\r\n            isAlreadyPatient[_patientAddress] == 0,\r\n            \"Patient Already Exists!\"\r\n        );\r\n        _;\r\n    }\r\n\r\n    constructor() {\r\n        ownerAddress = msg.sender;\r\n        patientList.push(\r\n            User(\r\n                initialPatientId,\r\n                25,\r\n                1,\r\n                VaccineStatus.not_vaccinated,\r\n                \"Dhaka\",\r\n                \"Headache\",\r\n                false,\r\n                ownerAddress,\r\n                UserType.admin\r\n            )\r\n        );\r\n        patientList.push(\r\n            User(\r\n                1,\r\n                18,\r\n                2,\r\n                VaccineStatus.one_dose,\r\n                \"Chittagong\",\r\n                \"Cough, Fever, Headache\",\r\n                false,\r\n                address(0xD8e9698dbA5dF92882478e5f049b2666b00120d0),\r\n                UserType.patient\r\n            )\r\n        );\r\n        patientList.push(\r\n            User(\r\n                2,\r\n                82,\r\n                2,\r\n                VaccineStatus.one_dose,\r\n                \"Chittagong\",\r\n                \"Fever, Cough\",\r\n                false,\r\n                address(0x67A3688404800d48554448853e6e7028EDB8dEF9),\r\n                UserType.patient\r\n            )\r\n        );\r\n\r\n        patientList.push(\r\n            User(\r\n                3,\r\n                12,\r\n                1,\r\n                VaccineStatus.two_dose,\r\n                \"Rajshahi\",\r\n                \"Fatigue, Loss of Taste\",\r\n                true,\r\n                address(0x232Dccb4f2a2e57d085832aa8151Acd4dA5EC0cc),\r\n                UserType.patient\r\n            )\r\n        );\r\n        patientList.push(\r\n            User(\r\n                4,\r\n                28,\r\n                2,\r\n                VaccineStatus.not_vaccinated,\r\n                \"Khulna\",\r\n                \"Body Aches, Sore Throat\",\r\n                false,\r\n                address(0x54a231904E3D11447676BF6025aF240354011228),\r\n                UserType.patient\r\n            )\r\n        );\r\n\r\n        patientList.push(\r\n            User(\r\n                5,\r\n                45,\r\n                1,\r\n                VaccineStatus.one_dose,\r\n                \"Dhaka\",\r\n                \"Shortness of Breath, Diarrhea\",\r\n                false,\r\n                address(0xA43CaeD907c2987E655E5Fff06800021DCcC356b),\r\n                UserType.patient\r\n            )\r\n        );\r\n\r\n        isAdmin[ownerAddress] = 1;\r\n        initialPatientId = 5;\r\n    }\r\n    \r\n\r\n    // Storing patient data\r\n    function storePatientData(\r\n        uint8 _age,\r\n        uint256 _gender,\r\n        string memory _district,\r\n        string memory _symptomsDetails,\r\n        VaccineStatus _vaccineStatus,\r\n        bool _isDead\r\n    ) public validPatientAddress(msg.sender) {\r\n        User memory tempPatient = User(\r\n            initialPatientId + 1,\r\n            _age,\r\n            _gender,\r\n            _vaccineStatus,\r\n            _district,\r\n            _symptomsDetails,\r\n            _isDead,\r\n            msg.sender,\r\n            UserType.patient\r\n        );\r\n\r\n        patientList.push(tempPatient);\r\n        isAdmin[msg.sender] = 0;\r\n        isAlreadyPatient[msg.sender] = 1;\r\n        initialPatientId++;\r\n    }\r\n\r\n    function storeAdminData(\r\n        address _refAdminAddress,\r\n        uint8 _age,\r\n        uint256 _gender,\r\n        string memory _district\r\n    ) public validRefAdminAddress(_refAdminAddress) {\r\n        User memory tempPatient = User(\r\n            initialPatientId + 1,\r\n            _age,\r\n            _gender,\r\n            VaccineStatus.not_vaccinated,\r\n            _district,\r\n            \"\",\r\n            false,\r\n            msg.sender,\r\n            UserType.admin\r\n        );\r\n\r\n        patientList.push(tempPatient);\r\n        isAdmin[msg.sender] = 1;\r\n        initialPatientId++;\r\n    }\r\n\r\n    function updateVaccineStatus(\r\n        uint _patientId,\r\n        VaccineStatus _vaccineStatus\r\n    ) public onlyAdminAccess {\r\n        patientList[_patientId].vaccineStatus = _vaccineStatus;\r\n        emit updatedVaccineStatus(_patientId, _vaccineStatus);\r\n    }\r\n\r\n    function updateDeadStatus(\r\n        uint _patientId,\r\n        bool _deadStatus\r\n    ) public onlyAdminAccess {\r\n        patientList[_patientId].isDead = _deadStatus;\r\n        emit updatedDeadStatus(_patientId, _deadStatus);\r\n    }\r\n\r\n    function getPatientDataList() public view returns (User[] memory) {\r\n        return patientList;\r\n    }\r\n\r\n    function checkIfAdmin(address _adminAddress) public view returns (bool) {\r\n        if (isAdmin[_adminAddress] == 1) {\r\n            return true;\r\n        }\r\n        return false;\r\n    }\r\n\r\n    function checkIfAlreadyPatient(address _patientAddress) public view returns (bool) {\r\n        if (isAlreadyPatient[_patientAddress] == 1) {\r\n            return true;\r\n        }\r\n        return false;\r\n    }\r\n}\r\n",
  "sourcePath": "F:\\BRAC\\CSE446\\Eth Project\\patient-management-dapp\\contracts\\patientManagement.sol",
  "compiler": {
    "name": "solc",
    "version": "0.8.17+commit.8df45f5f.Emscripten.clang"
  },
  "schemaVersion": "3.4.16",
  "updatedAt": "2024-04-15T02:39:11.136Z",
  "networkType": "ethereum",
  "devdoc": {
    "kind": "dev",
    "methods": {},
    "version": 1
  },
  "userdoc": {
    "kind": "user",
    "methods": {},
    "version": 1
  }
}