{
  "contractName": "PatientManagement",
  "abi": [
    {
      "inputs": [],
      "stateMutability": "nonpayable",
      "type": "constructor"
    },
    {
      "inputs": [],
      "name": "ownerAddress",
      "outputs": [
        {
          "internalType": "address",
          "name": "",
          "type": "address"
        }
      ],
      "stateMutability": "view",
      "type": "function",
      "constant": true
    },
    {
      "inputs": [
        {
          "internalType": "uint256",
          "name": "",
          "type": "uint256"
        }
      ],
      "name": "patientList",
      "outputs": [
        {
          "internalType": "uint256",
          "name": "patientId",
          "type": "uint256"
        },
        {
          "internalType": "uint8",
          "name": "age",
          "type": "uint8"
        },
        {
          "internalType": "uint256",
          "name": "gender",
          "type": "uint256"
        },
        {
          "internalType": "enum PatientManagement.VaccineStatus",
          "name": "vaccineStatus",
          "type": "uint8"
        },
        {
          "internalType": "string",
          "name": "district",
          "type": "string"
        },
        {
          "internalType": "string",
          "name": "symptomsDetails",
          "type": "string"
        },
        {
          "internalType": "bool",
          "name": "isDead",
          "type": "bool"
        },
        {
          "internalType": "address",
          "name": "patientAddress",
          "type": "address"
        },
        {
          "internalType": "enum PatientManagement.UserType",
          "name": "userType",
          "type": "uint8"
        }
      ],
      "stateMutability": "view",
      "type": "function",
      "constant": true
    },
    {
      "inputs": [
        {
          "internalType": "uint8",
          "name": "_age",
          "type": "uint8"
        },
        {
          "internalType": "uint256",
          "name": "_gender",
          "type": "uint256"
        },
        {
          "internalType": "string",
          "name": "_district",
          "type": "string"
        },
        {
          "internalType": "string",
          "name": "_symptomsDetails",
          "type": "string"
        },
        {
          "internalType": "enum PatientManagement.VaccineStatus",
          "name": "_vaccineStatus",
          "type": "uint8"
        },
        {
          "internalType": "bool",
          "name": "_isDead",
          "type": "bool"
        }
      ],
      "name": "storePatientData",
      "outputs": [],
      "stateMutability": "nonpayable",
      "type": "function"
    },
    {
      "inputs": [
        {
          "internalType": "address",
          "name": "_refAdminAddress",
          "type": "address"
        },
        {
          "internalType": "uint8",
          "name": "_age",
          "type": "uint8"
        },
        {
          "internalType": "uint256",
          "name": "_gender",
          "type": "uint256"
        },
        {
          "internalType": "string",
          "name": "_district",
          "type": "string"
        }
      ],
      "name": "storeAdminData",
      "outputs": [],
      "stateMutability": "nonpayable",
      "type": "function"
    },
    {
      "inputs": [
        {
          "internalType": "uint256",
          "name": "_patientId",
          "type": "uint256"
        },
        {
          "internalType": "enum PatientManagement.VaccineStatus",
          "name": "_vaccineStatus",
          "type": "uint8"
        }
      ],
      "name": "updateVaccineStatus",
      "outputs": [],
      "stateMutability": "nonpayable",
      "type": "function"
    },
    {
      "inputs": [
        {
          "internalType": "uint256",
          "name": "_patientId",
          "type": "uint256"
        },
        {
          "internalType": "bool",
          "name": "_deadStatus",
          "type": "bool"
        }
      ],
      "name": "updateDeadStatus",
      "outputs": [],
      "stateMutability": "nonpayable",
      "type": "function"
    },
    {
      "inputs": [],
      "name": "getPatientDataList",
      "outputs": [
        {
          "components": [
            {
              "internalType": "uint256",
              "name": "patientId",
              "type": "uint256"
            },
            {
              "internalType": "uint8",
              "name": "age",
              "type": "uint8"
            },
            {
              "internalType": "uint256",
              "name": "gender",
              "type": "uint256"
            },
            {
              "internalType": "enum PatientManagement.VaccineStatus",
              "name": "vaccineStatus",
              "type": "uint8"
            },
            {
              "internalType": "string",
              "name": "district",
              "type": "string"
            },
            {
              "internalType": "string",
              "name": "symptomsDetails",
              "type": "string"
            },
            {
              "internalType": "bool",
              "name": "isDead",
              "type": "bool"
            },
            {
              "internalType": "address",
              "name": "patientAddress",
              "type": "address"
            },
            {
              "internalType": "enum PatientManagement.UserType",
              "name": "userType",
              "type": "uint8"
            }
          ],
          "internalType": "struct PatientManagement.User[]",
          "name": "",
          "type": "tuple[]"
        }
      ],
      "stateMutability": "view",
      "type": "function",
      "constant": true
    },
    {
      "inputs": [
        {
          "internalType": "address",
          "name": "_adminAddress",
          "type": "address"
        }
      ],
      "name": "checkIfAdmin",
      "outputs": [
        {
          "internalType": "bool",
          "name": "",
          "type": "bool"
        }
      ],
      "stateMutability": "view",
      "type": "function",
      "constant": true
    }
  ],
  "bytecode": "0x608060405260006001553480156200001657600080fd5b50336000806101000a81548173ffffffffffffffffffffffffffffffffffffffff021916908373ffffffffffffffffffffffffffffffffffffffff16021790555060026040518061012001604052806001548152602001601960ff168152602001600181526020016000600281111562000095576200009462000339565b5b81526020016040518060400160405280600581526020017f4468616b6100000000000000000000000000000000000000000000000000000081525081526020016040518060400160405280600881526020017f4865616461636865000000000000000000000000000000000000000000000000815250815260200160001515815260200160008054906101000a900473ffffffffffffffffffffffffffffffffffffffff1673ffffffffffffffffffffffffffffffffffffffff168152602001600060018111156200016c576200016b62000339565b5b81525090806001815401808255809150506001900390600052602060002090600702016000909190919091506000820151816000015560208201518160010160006101000a81548160ff021916908360ff1602179055506040820151816002015560608201518160030160006101000a81548160ff02191690836002811115620001fb57620001fa62000339565b5b02179055506080820151816004019081620002179190620005e2565b5060a08201518160050190816200022f9190620005e2565b5060c08201518160060160006101000a81548160ff02191690831515021790555060e08201518160060160016101000a81548173ffffffffffffffffffffffffffffffffffffffff021916908373ffffffffffffffffffffffffffffffffffffffff1602179055506101008201518160060160156101000a81548160ff02191690836001811115620002c657620002c562000339565b5b021790555050506001600360008060009054906101000a900473ffffffffffffffffffffffffffffffffffffffff1673ffffffffffffffffffffffffffffffffffffffff1673ffffffffffffffffffffffffffffffffffffffff16815260200190815260200160002081905550620006c9565b7f4e487b7100000000000000000000000000000000000000000000000000000000600052602160045260246000fd5b600081519050919050565b7f4e487b7100000000000000000000000000000000000000000000000000000000600052604160045260246000fd5b7f4e487b7100000000000000000000000000000000000000000000000000000000600052602260045260246000fd5b60006002820490506001821680620003ea57607f821691505b6020821081036200040057620003ff620003a2565b5b50919050565b60008190508160005260206000209050919050565b60006020601f8301049050919050565b600082821b905092915050565b6000600883026200046a7fffffffffffffffffffffffffffffffffffffffffffffffffffffffffffffffff826200042b565b6200047686836200042b565b95508019841693508086168417925050509392505050565b6000819050919050565b6000819050919050565b6000620004c3620004bd620004b7846200048e565b62000498565b6200048e565b9050919050565b6000819050919050565b620004df83620004a2565b620004f7620004ee82620004ca565b84845462000438565b825550505050565b600090565b6200050e620004ff565b6200051b818484620004d4565b505050565b5b8181101562000543576200053760008262000504565b60018101905062000521565b5050565b601f82111562000592576200055c8162000406565b62000567846200041b565b8101602085101562000577578190505b6200058f62000586856200041b565b83018262000520565b50505b505050565b600082821c905092915050565b6000620005b76000198460080262000597565b1980831691505092915050565b6000620005d28383620005a4565b9150826002028217905092915050565b620005ed8262000368565b67ffffffffffffffff81111562000609576200060862000373565b5b620006158254620003d1565b6200062282828562000547565b600060209050601f8311600181146200065a576000841562000645578287015190505b620006518582620005c4565b865550620006c1565b601f1984166200066a8662000406565b60005b8281101562000694578489015182556001820191506020850194506020810190506200066d565b86831015620006b45784890151620006b0601f891682620005a4565b8355505b6001600288020188555050505b505050505050565b611d1980620006d96000396000f3fe608060405234801561001057600080fd5b50600436106100885760003560e01c80638eed5c5f1161005b5780638eed5c5f146100ff5780638f84aa091461011b578063babb1d4114610139578063d9fa9c1a1461017157610088565b8063447b618f1461008d578063602de8c4146100a957806384825f83146100c55780638663759c146100e1575b600080fd5b6100a760048036038101906100a2919061106f565b6101a1565b005b6100c360048036038101906100be9190611117565b610482565b005b6100df60048036038101906100da919061118f565b610561565b005b6100e9610630565b6040516100f691906114d7565b60405180910390f35b610119600480360381019061011491906114f9565b6108cc565b005b610123610c06565b60405161013091906115cd565b60405180910390f35b610153600480360381019061014e91906115e8565b610c2a565b604051610168999897969594939291906116aa565b60405180910390f35b61018b60048036038101906101869190611745565b610dec565b6040516101989190611772565b60405180910390f35b836001600360008373ffffffffffffffffffffffffffffffffffffffff1673ffffffffffffffffffffffffffffffffffffffff1681526020019081526020016000205414610224576040517f08c379a000000000000000000000000000000000000000000000000000000000815260040161021b906117d9565b60405180910390fd5b6000604051806101200160405280600180546102409190611828565b81526020018660ff1681526020018581526020016000600281111561026857610267611219565b5b81526020018481526020016040518060200160405280600081525081526020016000151581526020013373ffffffffffffffffffffffffffffffffffffffff168152602001600060018111156102c1576102c0611219565b5b815250905060028190806001815401808255809150506001900390600052602060002090600702016000909190919091506000820151816000015560208201518160010160006101000a81548160ff021916908360ff1602179055506040820151816002015560608201518160030160006101000a81548160ff0219169083600281111561035257610351611219565b5b0217905550608082015181600401908161036c9190611a68565b5060a08201518160050190816103829190611a68565b5060c08201518160060160006101000a81548160ff02191690831515021790555060e08201518160060160016101000a81548173ffffffffffffffffffffffffffffffffffffffff021916908373ffffffffffffffffffffffffffffffffffffffff1602179055506101008201518160060160156101000a81548160ff0219169083600181111561041657610415611219565b5b021790555050506001600360003373ffffffffffffffffffffffffffffffffffffffff1673ffffffffffffffffffffffffffffffffffffffff168152602001908152602001600020819055506001600081548092919061047590611b3a565b9190505550505050505050565b6001600360003373ffffffffffffffffffffffffffffffffffffffff1673ffffffffffffffffffffffffffffffffffffffff1681526020019081526020016000205414610504576040517f08c379a00000000000000000000000000000000000000000000000000000000081526004016104fb90611bf4565b60405180910390fd5b8060026001846105149190611c14565b8154811061052557610524611c48565b5b906000526020600020906007020160030160006101000a81548160ff0219169083600281111561055857610557611219565b5b02179055505050565b6001600360003373ffffffffffffffffffffffffffffffffffffffff1673ffffffffffffffffffffffffffffffffffffffff16815260200190815260200160002054146105e3576040517f08c379a00000000000000000000000000000000000000000000000000000000081526004016105da90611bf4565b60405180910390fd5b8060026001846105f39190611c14565b8154811061060457610603611c48565b5b906000526020600020906007020160060160006101000a81548160ff0219169083151502179055505050565b60606002805480602002602001604051908101604052809291908181526020016000905b828210156108c3578382906000526020600020906007020160405180610120016040529081600082015481526020016001820160009054906101000a900460ff1660ff1660ff168152602001600282015481526020016003820160009054906101000a900460ff1660028111156106ce576106cd611219565b5b60028111156106e0576106df611219565b5b81526020016004820180546106f49061188b565b80601f01602080910402602001604051908101604052809291908181526020018280546107209061188b565b801561076d5780601f106107425761010080835404028352916020019161076d565b820191906000526020600020905b81548152906001019060200180831161075057829003601f168201915b505050505081526020016005820180546107869061188b565b80601f01602080910402602001604051908101604052809291908181526020018280546107b29061188b565b80156107ff5780601f106107d4576101008083540402835291602001916107ff565b820191906000526020600020905b8154815290600101906020018083116107e257829003601f168201915b505050505081526020016006820160009054906101000a900460ff161515151581526020016006820160019054906101000a900473ffffffffffffffffffffffffffffffffffffffff1673ffffffffffffffffffffffffffffffffffffffff1673ffffffffffffffffffffffffffffffffffffffff1681526020016006820160159054906101000a900460ff16600181111561089e5761089d611219565b5b60018111156108b0576108af611219565b5b8152505081526020019060010190610654565b50505050905090565b3360011515600460008373ffffffffffffffffffffffffffffffffffffffff1673ffffffffffffffffffffffffffffffffffffffff16815260200190815260200160002060009054906101000a900460ff16151514610960576040517f08c379a000000000000000000000000000000000000000000000000000000000815260040161095790611cc3565b60405180910390fd5b60006040518061012001604052806001805461097c9190611828565b81526020018960ff1681526020018881526020018560028111156109a3576109a2611219565b5b815260200187815260200186815260200184151581526020013373ffffffffffffffffffffffffffffffffffffffff1681526020016001808111156109eb576109ea611219565b5b815250905060028190806001815401808255809150506001900390600052602060002090600702016000909190919091506000820151816000015560208201518160010160006101000a81548160ff021916908360ff1602179055506040820151816002015560608201518160030160006101000a81548160ff02191690836002811115610a7c57610a7b611219565b5b02179055506080820151816004019081610a969190611a68565b5060a0820151816005019081610aac9190611a68565b5060c08201518160060160006101000a81548160ff02191690831515021790555060e08201518160060160016101000a81548173ffffffffffffffffffffffffffffffffffffffff021916908373ffffffffffffffffffffffffffffffffffffffff1602179055506101008201518160060160156101000a81548160ff02191690836001811115610b4057610b3f611219565b5b021790555050506000600360003373ffffffffffffffffffffffffffffffffffffffff1673ffffffffffffffffffffffffffffffffffffffff168152602001908152602001600020819055506001600460003373ffffffffffffffffffffffffffffffffffffffff1673ffffffffffffffffffffffffffffffffffffffff16815260200190815260200160002060006101000a81548160ff02191690831515021790555060016000815480929190610bf790611b3a565b91905055505050505050505050565b60008054906101000a900473ffffffffffffffffffffffffffffffffffffffff1681565b60028181548110610c3a57600080fd5b90600052602060002090600702016000915090508060000154908060010160009054906101000a900460ff16908060020154908060030160009054906101000a900460ff1690806004018054610c8f9061188b565b80601f0160208091040260200160405190810160405280929190818152602001828054610cbb9061188b565b8015610d085780601f10610cdd57610100808354040283529160200191610d08565b820191906000526020600020905b815481529060010190602001808311610ceb57829003601f168201915b505050505090806005018054610d1d9061188b565b80601f0160208091040260200160405190810160405280929190818152602001828054610d499061188b565b8015610d965780601f10610d6b57610100808354040283529160200191610d96565b820191906000526020600020905b815481529060010190602001808311610d7957829003601f168201915b5050505050908060060160009054906101000a900460ff16908060060160019054906101000a900473ffffffffffffffffffffffffffffffffffffffff16908060060160159054906101000a900460ff16905089565b60006001600360008473ffffffffffffffffffffffffffffffffffffffff1673ffffffffffffffffffffffffffffffffffffffff1681526020019081526020016000205403610e3e5760019050610e43565b600090505b919050565b6000604051905090565b600080fd5b600080fd5b600073ffffffffffffffffffffffffffffffffffffffff82169050919050565b6000610e8782610e5c565b9050919050565b610e9781610e7c565b8114610ea257600080fd5b50565b600081359050610eb481610e8e565b92915050565b600060ff82169050919050565b610ed081610eba565b8114610edb57600080fd5b50565b600081359050610eed81610ec7565b92915050565b6000819050919050565b610f0681610ef3565b8114610f1157600080fd5b50565b600081359050610f2381610efd565b92915050565b600080fd5b600080fd5b6000601f19601f8301169050919050565b7f4e487b7100000000000000000000000000000000000000000000000000000000600052604160045260246000fd5b610f7c82610f33565b810181811067ffffffffffffffff82111715610f9b57610f9a610f44565b5b80604052505050565b6000610fae610e48565b9050610fba8282610f73565b919050565b600067ffffffffffffffff821115610fda57610fd9610f44565b5b610fe382610f33565b9050602081019050919050565b82818337600083830152505050565b600061101261100d84610fbf565b610fa4565b90508281526020810184848401111561102e5761102d610f2e565b5b611039848285610ff0565b509392505050565b600082601f83011261105657611055610f29565b5b8135611066848260208601610fff565b91505092915050565b6000806000806080858703121561108957611088610e52565b5b600061109787828801610ea5565b94505060206110a887828801610ede565b93505060406110b987828801610f14565b925050606085013567ffffffffffffffff8111156110da576110d9610e57565b5b6110e687828801611041565b91505092959194509250565b600381106110ff57600080fd5b50565b600081359050611111816110f2565b92915050565b6000806040838503121561112e5761112d610e52565b5b600061113c85828601610f14565b925050602061114d85828601611102565b9150509250929050565b60008115159050919050565b61116c81611157565b811461117757600080fd5b50565b60008135905061118981611163565b92915050565b600080604083850312156111a6576111a5610e52565b5b60006111b485828601610f14565b92505060206111c58582860161117a565b9150509250929050565b600081519050919050565b600082825260208201905092915050565b6000819050602082019050919050565b61120481610ef3565b82525050565b61121381610eba565b82525050565b7f4e487b7100000000000000000000000000000000000000000000000000000000600052602160045260246000fd5b6003811061125957611258611219565b5b50565b600081905061126a82611248565b919050565b600061127a8261125c565b9050919050565b61128a8161126f565b82525050565b600081519050919050565b600082825260208201905092915050565b60005b838110156112ca5780820151818401526020810190506112af565b60008484015250505050565b60006112e182611290565b6112eb818561129b565b93506112fb8185602086016112ac565b61130481610f33565b840191505092915050565b61131881611157565b82525050565b61132781610e7c565b82525050565b6002811061133e5761133d611219565b5b50565b600081905061134f8261132d565b919050565b600061135f82611341565b9050919050565b61136f81611354565b82525050565b60006101208301600083015161138e60008601826111fb565b5060208301516113a1602086018261120a565b5060408301516113b460408601826111fb565b5060608301516113c76060860182611281565b50608083015184820360808601526113df82826112d6565b91505060a083015184820360a08601526113f982826112d6565b91505060c083015161140e60c086018261130f565b5060e083015161142160e086018261131e565b50610100830151611436610100860182611366565b508091505092915050565b600061144d8383611375565b905092915050565b6000602082019050919050565b600061146d826111cf565b61147781856111da565b935083602082028501611489856111eb565b8060005b858110156114c557848403895281516114a68582611441565b94506114b183611455565b925060208a0199505060018101905061148d565b50829750879550505050505092915050565b600060208201905081810360008301526114f18184611462565b905092915050565b60008060008060008060c0878903121561151657611515610e52565b5b600061152489828a01610ede565b965050602061153589828a01610f14565b955050604087013567ffffffffffffffff81111561155657611555610e57565b5b61156289828a01611041565b945050606087013567ffffffffffffffff81111561158357611582610e57565b5b61158f89828a01611041565b93505060806115a089828a01611102565b92505060a06115b189828a0161117a565b9150509295509295509295565b6115c781610e7c565b82525050565b60006020820190506115e260008301846115be565b92915050565b6000602082840312156115fe576115fd610e52565b5b600061160c84828501610f14565b91505092915050565b61161e81610ef3565b82525050565b61162d81610eba565b82525050565b61163c8161126f565b82525050565b600082825260208201905092915050565b600061165e82611290565b6116688185611642565b93506116788185602086016112ac565b61168181610f33565b840191505092915050565b61169581611157565b82525050565b6116a481611354565b82525050565b6000610120820190506116c0600083018c611615565b6116cd602083018b611624565b6116da604083018a611615565b6116e76060830189611633565b81810360808301526116f98188611653565b905081810360a083015261170d8187611653565b905061171c60c083018661168c565b61172960e08301856115be565b61173761010083018461169b565b9a9950505050505050505050565b60006020828403121561175b5761175a610e52565b5b600061176984828501610ea5565b91505092915050565b6000602082019050611787600083018461168c565b92915050565b7f496e76616c6964207265666572656e6365206164647265737321000000000000600082015250565b60006117c3601a83611642565b91506117ce8261178d565b602082019050919050565b600060208201905081810360008301526117f2816117b6565b9050919050565b7f4e487b7100000000000000000000000000000000000000000000000000000000600052601160045260246000fd5b600061183382610ef3565b915061183e83610ef3565b9250828201905080821115611856576118556117f9565b5b92915050565b7f4e487b7100000000000000000000000000000000000000000000000000000000600052602260045260246000fd5b600060028204905060018216806118a357607f821691505b6020821081036118b6576118b561185c565b5b50919050565b60008190508160005260206000209050919050565b60006020601f8301049050919050565b600082821b905092915050565b60006008830261191e7fffffffffffffffffffffffffffffffffffffffffffffffffffffffffffffffff826118e1565b61192886836118e1565b95508019841693508086168417925050509392505050565b6000819050919050565b600061196561196061195b84610ef3565b611940565b610ef3565b9050919050565b6000819050919050565b61197f8361194a565b61199361198b8261196c565b8484546118ee565b825550505050565b600090565b6119a861199b565b6119b3818484611976565b505050565b5b818110156119d7576119cc6000826119a0565b6001810190506119b9565b5050565b601f821115611a1c576119ed816118bc565b6119f6846118d1565b81016020851015611a05578190505b611a19611a11856118d1565b8301826119b8565b50505b505050565b600082821c905092915050565b6000611a3f60001984600802611a21565b1980831691505092915050565b6000611a588383611a2e565b9150826002028217905092915050565b611a7182611290565b67ffffffffffffffff811115611a8a57611a89610f44565b5b611a94825461188b565b611a9f8282856119db565b600060209050601f831160018114611ad25760008415611ac0578287015190505b611aca8582611a4c565b865550611b32565b601f198416611ae0866118bc565b60005b82811015611b0857848901518255600182019150602085019450602081019050611ae3565b86831015611b255784890151611b21601f891682611a2e565b8355505b6001600288020188555050505b505050505050565b6000611b4582610ef3565b91507fffffffffffffffffffffffffffffffffffffffffffffffffffffffffffffffff8203611b7757611b766117f9565b5b600182019050919050565b7f4f6e6c792061646d696e2063616e2061636365737320746869732066756e637460008201527f696f6e0000000000000000000000000000000000000000000000000000000000602082015250565b6000611bde602383611642565b9150611be982611b82565b604082019050919050565b60006020820190508181036000830152611c0d81611bd1565b9050919050565b6000611c1f82610ef3565b9150611c2a83610ef3565b9250828203905081811115611c4257611c416117f9565b5b92915050565b7f4e487b7100000000000000000000000000000000000000000000000000000000600052603260045260246000fd5b7f50617469656e7420416c72656164792045786973747321000000000000000000600082015250565b6000611cad601783611642565b9150611cb882611c77565b602082019050919050565b60006020820190508181036000830152611cdc81611ca0565b905091905056fea264697066735822122008559d1f172f9008f44f8f6dc3b29398773c4173aef20b5a1da9578e98604db664736f6c63430008110033",
  "immutableReferences": {},
  "source": "// SPDX-License-Identifier: MIT\r\npragma solidity 0.8.17;\r\n\r\n// Admin, Patient\r\n\r\ncontract PatientManagement {\r\n    address public ownerAddress;\r\n\r\n    uint internal initialPatientId = 0;\r\n\r\n    User[] public patientList;\r\n    mapping(address => uint) isAdmin;\r\n    mapping(address => bool) isAlreadyPatient;\r\n\r\n    struct User {\r\n        uint256 patientId;\r\n        uint8 age;\r\n        uint256 gender; // 1 - male, 2- female;\r\n        VaccineStatus vaccineStatus; // 0, 1, 2\r\n        string district;\r\n        string symptomsDetails;\r\n        bool isDead;\r\n        address patientAddress;\r\n        UserType userType;\r\n    }\r\n    enum VaccineStatus {\r\n        not_vaccinated,\r\n        one_dose,\r\n        two_dose\r\n    }\r\n    enum UserType {\r\n        admin,\r\n        patient\r\n    }\r\n\r\n    modifier onlyAdminAccess() {\r\n        require(\r\n            isAdmin[msg.sender] == 1,\r\n            \"Only admin can access this function\"\r\n        );\r\n        _;\r\n    }\r\n\r\n    modifier validRefAdminAddress(address _refAddress) {\r\n        require(isAdmin[_refAddress] == 1, \"Invalid reference address!\");\r\n        _;\r\n    }\r\n\r\n    modifier validPatientAddress(address _patientAddress) {\r\n        require(\r\n            isAlreadyPatient[_patientAddress] == true,\r\n            \"Patient Already Exists!\"\r\n        );\r\n        _;\r\n    }\r\n\r\n    constructor() {\r\n        ownerAddress = msg.sender;\r\n        patientList.push(\r\n            User(\r\n                initialPatientId,\r\n                25,\r\n                1,\r\n                VaccineStatus.not_vaccinated,\r\n                \"Dhaka\",\r\n                \"Headache\",\r\n                false,\r\n                ownerAddress,\r\n                UserType.admin\r\n            )\r\n        );\r\n        isAdmin[ownerAddress] = 1;\r\n    }\r\n\r\n    // Storing patient data\r\n    function storePatientData(\r\n        uint8 _age,\r\n        uint256 _gender,\r\n        string memory _district,\r\n        string memory _symptomsDetails,\r\n        VaccineStatus _vaccineStatus,\r\n        bool _isDead\r\n    ) public validPatientAddress(msg.sender) {\r\n        User memory tempPatient = User(\r\n            initialPatientId + 1,\r\n            _age,\r\n            _gender,\r\n            _vaccineStatus,\r\n            _district,\r\n            _symptomsDetails,\r\n            _isDead,\r\n            msg.sender,\r\n            UserType.patient\r\n        );\r\n\r\n        patientList.push(tempPatient);\r\n        isAdmin[msg.sender] = 0;\r\n        isAlreadyPatient[msg.sender] = true;\r\n        initialPatientId++;\r\n    }\r\n\r\n    function storeAdminData(\r\n        address _refAdminAddress,\r\n        uint8 _age,\r\n        uint256 _gender,\r\n        string memory _district\r\n    ) public validRefAdminAddress(_refAdminAddress) {\r\n        User memory tempPatient = User(\r\n            initialPatientId + 1,\r\n            _age,\r\n            _gender,\r\n            VaccineStatus.not_vaccinated,\r\n            _district,\r\n            \"\",\r\n            false,\r\n            msg.sender,\r\n            UserType.admin\r\n        );\r\n\r\n        patientList.push(tempPatient);\r\n        isAdmin[msg.sender] = 1;\r\n        initialPatientId++;\r\n    }\r\n\r\n    function updateVaccineStatus(\r\n        uint _patientId,\r\n        VaccineStatus _vaccineStatus\r\n    ) public onlyAdminAccess {\r\n        patientList[_patientId - 1].vaccineStatus = _vaccineStatus;\r\n    }\r\n\r\n    function updateDeadStatus(\r\n        uint _patientId,\r\n        bool _deadStatus\r\n    ) public onlyAdminAccess {\r\n        patientList[_patientId - 1].isDead = _deadStatus;\r\n    }\r\n\r\n    function getPatientDataList() public view returns (User[] memory) {\r\n        return patientList;\r\n    }\r\n\r\n    function checkIfAdmin(address _adminAddress) public view returns (bool) {\r\n        if (isAdmin[_adminAddress] == 1) {\r\n            return true;\r\n        }\r\n        return false;\r\n    }\r\n}\r\n",
  "sourcePath": "C:\\Users\\ANJAR\\Desktop\\Project 1\\contracts\\patientManagement.sol",
  "compiler": {
    "name": "solc",
    "version": "0.8.17+commit.8df45f5f.Emscripten.clang"
  },
  "schemaVersion": "3.4.16",
  "updatedAt": "2024-04-14T19:10:13.594Z",
  "networkType": "ethereum",
  "devdoc": {
    "kind": "dev",
    "methods": {},
    "version": 1
  },
  "userdoc": {
    "kind": "user",
    "methods": {},
    "version": 1
  }
}