{
  "contractName": "PatientManagement",
  "abi": [
    {
      "inputs": [],
      "stateMutability": "nonpayable",
      "type": "constructor"
    },
    {
      "inputs": [],
      "name": "ownerAddress",
      "outputs": [
        {
          "internalType": "address",
          "name": "",
          "type": "address"
        }
      ],
      "stateMutability": "view",
      "type": "function"
    },
    {
      "inputs": [
        {
          "internalType": "uint256",
          "name": "",
          "type": "uint256"
        }
      ],
      "name": "patientList",
      "outputs": [
        {
          "internalType": "uint256",
          "name": "patientId",
          "type": "uint256"
        },
        {
          "internalType": "uint256",
          "name": "age",
          "type": "uint256"
        },
        {
          "internalType": "uint256",
          "name": "gender",
          "type": "uint256"
        },
        {
          "internalType": "enum PatientManagement.VaccineStatus",
          "name": "vaccineStatus",
          "type": "uint8"
        },
        {
          "internalType": "string",
          "name": "district",
          "type": "string"
        },
        {
          "internalType": "string",
          "name": "symptomsDetails",
          "type": "string"
        },
        {
          "internalType": "bool",
          "name": "isDead",
          "type": "bool"
        },
        {
          "internalType": "address",
          "name": "patientAddress",
          "type": "address"
        },
        {
          "internalType": "enum PatientManagement.UserType",
          "name": "userType",
          "type": "uint8"
        }
      ],
      "stateMutability": "view",
      "type": "function"
    },
    {
      "inputs": [
        {
          "internalType": "uint256",
          "name": "_age",
          "type": "uint256"
        },
        {
          "internalType": "uint256",
          "name": "_gender",
          "type": "uint256"
        },
        {
          "internalType": "string",
          "name": "_district",
          "type": "string"
        },
        {
          "internalType": "string",
          "name": "_symptomsDetails",
          "type": "string"
        }
      ],
      "name": "storePatientData",
      "outputs": [],
      "stateMutability": "nonpayable",
      "type": "function"
    },
    {
      "inputs": [
        {
          "internalType": "uint256",
          "name": "_patientId",
          "type": "uint256"
        },
        {
          "internalType": "enum PatientManagement.VaccineStatus",
          "name": "_vaccineStatus",
          "type": "uint8"
        }
      ],
      "name": "updateVaccineStatus",
      "outputs": [],
      "stateMutability": "nonpayable",
      "type": "function"
    },
    {
      "inputs": [
        {
          "internalType": "uint256",
          "name": "_patientId",
          "type": "uint256"
        },
        {
          "internalType": "bool",
          "name": "_deadStatus",
          "type": "bool"
        }
      ],
      "name": "updateDeadStatus",
      "outputs": [],
      "stateMutability": "nonpayable",
      "type": "function"
    }
  ],
  "bytecode": "0x60806040525f60015534801562000014575f80fd5b50335f806101000a81548173ffffffffffffffffffffffffffffffffffffffff021916908373ffffffffffffffffffffffffffffffffffffffff16021790555060026040518061012001604052806001815260200160198152602001600181526020015f60028111156200008d576200008c6200030d565b5b81526020016040518060400160405280600581526020017f61646d696e00000000000000000000000000000000000000000000000000000081525081526020016040518060400160405280600581526020017f61646d696e00000000000000000000000000000000000000000000000000000081525081526020015f151581526020015f8054906101000a900473ffffffffffffffffffffffffffffffffffffffff1673ffffffffffffffffffffffffffffffffffffffff1681526020015f60018111156200016157620001606200030d565b5b815250908060018154018082558091505060019003905f5260205f2090600702015f909190919091505f820151815f015560208201518160010155604082015181600201556060820151816003015f6101000a81548160ff02191690836002811115620001d357620001d26200030d565b5b02179055506080820151816004019081620001ef91906200059e565b5060a08201518160050190816200020791906200059e565b5060c0820151816006015f6101000a81548160ff02191690831515021790555060e08201518160060160016101000a81548173ffffffffffffffffffffffffffffffffffffffff021916908373ffffffffffffffffffffffffffffffffffffffff1602179055506101008201518160060160156101000a81548160ff021916908360018111156200029d576200029c6200030d565b5b02179055505050600160035f805f9054906101000a900473ffffffffffffffffffffffffffffffffffffffff1673ffffffffffffffffffffffffffffffffffffffff1673ffffffffffffffffffffffffffffffffffffffff1681526020019081526020015f208190555062000682565b7f4e487b71000000000000000000000000000000000000000000000000000000005f52602160045260245ffd5b5f81519050919050565b7f4e487b71000000000000000000000000000000000000000000000000000000005f52604160045260245ffd5b7f4e487b71000000000000000000000000000000000000000000000000000000005f52602260045260245ffd5b5f6002820490506001821680620003b657607f821691505b602082108103620003cc57620003cb62000371565b5b50919050565b5f819050815f5260205f209050919050565b5f6020601f8301049050919050565b5f82821b905092915050565b5f60088302620004307fffffffffffffffffffffffffffffffffffffffffffffffffffffffffffffffff82620003f3565b6200043c8683620003f3565b95508019841693508086168417925050509392505050565b5f819050919050565b5f819050919050565b5f62000486620004806200047a8462000454565b6200045d565b62000454565b9050919050565b5f819050919050565b620004a18362000466565b620004b9620004b0826200048d565b848454620003ff565b825550505050565b5f90565b620004cf620004c1565b620004dc81848462000496565b505050565b5b818110156200050357620004f75f82620004c5565b600181019050620004e2565b5050565b601f82111562000552576200051c81620003d2565b6200052784620003e4565b8101602085101562000537578190505b6200054f6200054685620003e4565b830182620004e1565b50505b505050565b5f82821c905092915050565b5f620005745f198460080262000557565b1980831691505092915050565b5f6200058e838362000563565b9150826002028217905092915050565b620005a9826200033a565b67ffffffffffffffff811115620005c557620005c462000344565b5b620005d182546200039e565b620005de82828562000507565b5f60209050601f83116001811462000614575f8415620005ff578287015190505b6200060b858262000581565b8655506200067a565b601f1984166200062486620003d2565b5f5b828110156200064d5784890151825560018201915060208501945060208101905062000626565b868310156200066d578489015162000669601f89168262000563565b8355505b6001600288020188555050505b505050505050565b61104880620006905f395ff3fe608060405234801561000f575f80fd5b5060043610610055575f3560e01c8063602de8c414610059578063733663b41461007557806384825f83146100915780638f84aa09146100ad578063babb1d41146100cb575b5f80fd5b610073600480360381019061006e91906106be565b610103565b005b61008f600480360381019061008a9190610838565b6101dd565b005b6100ab60048036038101906100a69190610909565b6103c0565b005b6100b561048a565b6040516100c29190610986565b60405180910390f35b6100e560048036038101906100e0919061099f565b6104ad565b6040516100fa99989796959493929190610b1b565b60405180910390f35b600160035f3373ffffffffffffffffffffffffffffffffffffffff1673ffffffffffffffffffffffffffffffffffffffff1681526020019081526020015f205414610183576040517f08c379a000000000000000000000000000000000000000000000000000000000815260040161017a90610c24565b60405180910390fd5b8060026001846101939190610c6f565b815481106101a4576101a3610ca2565b5b905f5260205f2090600702016003015f6101000a81548160ff021916908360028111156101d4576101d36109d9565b5b02179055505050565b5f604051806101200160405280600180546101f89190610ccf565b81526020018681526020018581526020015f600281111561021c5761021b6109d9565b5b81526020018481526020018381526020015f151581526020013373ffffffffffffffffffffffffffffffffffffffff168152602001600180811115610264576102636109d9565b5b8152509050600281908060018154018082558091505060019003905f5260205f2090600702015f909190919091505f820151815f015560208201518160010155604082015181600201556060820151816003015f6101000a81548160ff021916908360028111156102d8576102d76109d9565b5b021790555060808201518160040190816102f29190610efc565b5060a08201518160050190816103089190610efc565b5060c0820151816006015f6101000a81548160ff02191690831515021790555060e08201518160060160016101000a81548173ffffffffffffffffffffffffffffffffffffffff021916908373ffffffffffffffffffffffffffffffffffffffff1602179055506101008201518160060160156101000a81548160ff0219169083600181111561039b5761039a6109d9565b5b0217905550505060015f8154809291906103b490610fcb565b91905055505050505050565b600160035f3373ffffffffffffffffffffffffffffffffffffffff1673ffffffffffffffffffffffffffffffffffffffff1681526020019081526020015f205414610440576040517f08c379a000000000000000000000000000000000000000000000000000000000815260040161043790610c24565b60405180910390fd5b8060026001846104509190610c6f565b8154811061046157610460610ca2565b5b905f5260205f2090600702016006015f6101000a81548160ff0219169083151502179055505050565b5f8054906101000a900473ffffffffffffffffffffffffffffffffffffffff1681565b600281815481106104bc575f80fd5b905f5260205f2090600702015f91509050805f015490806001015490806002015490806003015f9054906101000a900460ff16908060040180546104ff90610d2f565b80601f016020809104026020016040519081016040528092919081815260200182805461052b90610d2f565b80156105765780601f1061054d57610100808354040283529160200191610576565b820191905f5260205f20905b81548152906001019060200180831161055957829003601f168201915b50505050509080600501805461058b90610d2f565b80601f01602080910402602001604051908101604052809291908181526020018280546105b790610d2f565b80156106025780601f106105d957610100808354040283529160200191610602565b820191905f5260205f20905b8154815290600101906020018083116105e557829003601f168201915b505050505090806006015f9054906101000a900460ff16908060060160019054906101000a900473ffffffffffffffffffffffffffffffffffffffff16908060060160159054906101000a900460ff16905089565b5f604051905090565b5f80fd5b5f80fd5b5f819050919050565b61067a81610668565b8114610684575f80fd5b50565b5f8135905061069581610671565b92915050565b600381106106a7575f80fd5b50565b5f813590506106b88161069b565b92915050565b5f80604083850312156106d4576106d3610660565b5b5f6106e185828601610687565b92505060206106f2858286016106aa565b9150509250929050565b5f80fd5b5f80fd5b5f601f19601f8301169050919050565b7f4e487b71000000000000000000000000000000000000000000000000000000005f52604160045260245ffd5b61074a82610704565b810181811067ffffffffffffffff8211171561076957610768610714565b5b80604052505050565b5f61077b610657565b90506107878282610741565b919050565b5f67ffffffffffffffff8211156107a6576107a5610714565b5b6107af82610704565b9050602081019050919050565b828183375f83830152505050565b5f6107dc6107d78461078c565b610772565b9050828152602081018484840111156107f8576107f7610700565b5b6108038482856107bc565b509392505050565b5f82601f83011261081f5761081e6106fc565b5b813561082f8482602086016107ca565b91505092915050565b5f805f80608085870312156108505761084f610660565b5b5f61085d87828801610687565b945050602061086e87828801610687565b935050604085013567ffffffffffffffff81111561088f5761088e610664565b5b61089b8782880161080b565b925050606085013567ffffffffffffffff8111156108bc576108bb610664565b5b6108c88782880161080b565b91505092959194509250565b5f8115159050919050565b6108e8816108d4565b81146108f2575f80fd5b50565b5f81359050610903816108df565b92915050565b5f806040838503121561091f5761091e610660565b5b5f61092c85828601610687565b925050602061093d858286016108f5565b9150509250929050565b5f73ffffffffffffffffffffffffffffffffffffffff82169050919050565b5f61097082610947565b9050919050565b61098081610966565b82525050565b5f6020820190506109995f830184610977565b92915050565b5f602082840312156109b4576109b3610660565b5b5f6109c184828501610687565b91505092915050565b6109d381610668565b82525050565b7f4e487b71000000000000000000000000000000000000000000000000000000005f52602160045260245ffd5b60038110610a1757610a166109d9565b5b50565b5f819050610a2782610a06565b919050565b5f610a3682610a1a565b9050919050565b610a4681610a2c565b82525050565b5f81519050919050565b5f82825260208201905092915050565b5f5b83811015610a83578082015181840152602081019050610a68565b5f8484015250505050565b5f610a9882610a4c565b610aa28185610a56565b9350610ab2818560208601610a66565b610abb81610704565b840191505092915050565b610acf816108d4565b82525050565b60028110610ae657610ae56109d9565b5b50565b5f819050610af682610ad5565b919050565b5f610b0582610ae9565b9050919050565b610b1581610afb565b82525050565b5f61012082019050610b2f5f83018c6109ca565b610b3c602083018b6109ca565b610b49604083018a6109ca565b610b566060830189610a3d565b8181036080830152610b688188610a8e565b905081810360a0830152610b7c8187610a8e565b9050610b8b60c0830186610ac6565b610b9860e0830185610977565b610ba6610100830184610b0c565b9a9950505050505050505050565b7f4f6e6c792061646d696e2063616e2061636365737320746869732066756e63745f8201527f696f6e0000000000000000000000000000000000000000000000000000000000602082015250565b5f610c0e602383610a56565b9150610c1982610bb4565b604082019050919050565b5f6020820190508181035f830152610c3b81610c02565b9050919050565b7f4e487b71000000000000000000000000000000000000000000000000000000005f52601160045260245ffd5b5f610c7982610668565b9150610c8483610668565b9250828203905081811115610c9c57610c9b610c42565b5b92915050565b7f4e487b71000000000000000000000000000000000000000000000000000000005f52603260045260245ffd5b5f610cd982610668565b9150610ce483610668565b9250828201905080821115610cfc57610cfb610c42565b5b92915050565b7f4e487b71000000000000000000000000000000000000000000000000000000005f52602260045260245ffd5b5f6002820490506001821680610d4657607f821691505b602082108103610d5957610d58610d02565b5b50919050565b5f819050815f5260205f209050919050565b5f6020601f8301049050919050565b5f82821b905092915050565b5f60088302610dbb7fffffffffffffffffffffffffffffffffffffffffffffffffffffffffffffffff82610d80565b610dc58683610d80565b95508019841693508086168417925050509392505050565b5f819050919050565b5f610e00610dfb610df684610668565b610ddd565b610668565b9050919050565b5f819050919050565b610e1983610de6565b610e2d610e2582610e07565b848454610d8c565b825550505050565b5f90565b610e41610e35565b610e4c818484610e10565b505050565b5b81811015610e6f57610e645f82610e39565b600181019050610e52565b5050565b601f821115610eb457610e8581610d5f565b610e8e84610d71565b81016020851015610e9d578190505b610eb1610ea985610d71565b830182610e51565b50505b505050565b5f82821c905092915050565b5f610ed45f1984600802610eb9565b1980831691505092915050565b5f610eec8383610ec5565b9150826002028217905092915050565b610f0582610a4c565b67ffffffffffffffff811115610f1e57610f1d610714565b5b610f288254610d2f565b610f33828285610e73565b5f60209050601f831160018114610f64575f8415610f52578287015190505b610f5c8582610ee1565b865550610fc3565b601f198416610f7286610d5f565b5f5b82811015610f9957848901518255600182019150602085019450602081019050610f74565b86831015610fb65784890151610fb2601f891682610ec5565b8355505b6001600288020188555050505b505050505050565b5f610fd582610668565b91507fffffffffffffffffffffffffffffffffffffffffffffffffffffffffffffffff820361100757611006610c42565b5b60018201905091905056fea26469706673582212200289291a574e9afd8cb47363700cb7ea0291fed522c8ef238060b4ffa808d0a164736f6c63430008150033",
  "immutableReferences": {},
  "source": "// SPDX-License-Identifier: MIT\r\npragma solidity ^0.8.0;\r\n\r\n// Admin, Patient\r\n\r\ncontract PatientManagement {\r\n    address public ownerAddress;\r\n\r\n    uint private initialPatientId = 0;\r\n\r\n    User[] public patientList;\r\n    mapping(address => uint) isAdmin;\r\n\r\n    struct User {\r\n        uint256 patientId;\r\n        uint256 age;\r\n        uint256 gender; // 1 - male, 2- female;\r\n        VaccineStatus vaccineStatus; // 0, 1, 2\r\n        string district;\r\n        string symptomsDetails;\r\n        bool isDead;\r\n        address patientAddress;\r\n        UserType userType;\r\n    }\r\n    enum VaccineStatus {\r\n        not_vaccinated,\r\n        one_dose,\r\n        two_dose\r\n    }\r\n    enum UserType {\r\n        admin,\r\n        patient\r\n    }\r\n\r\n    constructor() {\r\n        ownerAddress = msg.sender;\r\n        patientList.push(\r\n            User(\r\n                1,\r\n                25,\r\n                1,\r\n                VaccineStatus.not_vaccinated,\r\n                \"admin\",\r\n                \"admin\",\r\n                false,\r\n                ownerAddress,\r\n                UserType.admin\r\n            )\r\n        );\r\n        isAdmin[ownerAddress] = 1;\r\n    }\r\n\r\n    // Storing patient data\r\n    function storePatientData(\r\n        uint256 _age,\r\n        uint256 _gender,\r\n        string memory _district,\r\n        string memory _symptomsDetails\r\n    ) public {\r\n        User memory tempPatient = User(\r\n            initialPatientId + 1,\r\n            _age,\r\n            _gender,\r\n            VaccineStatus.not_vaccinated,\r\n            _district,\r\n            _symptomsDetails,\r\n            false,\r\n            msg.sender,\r\n            UserType.patient\r\n        );\r\n\r\n        patientList.push(tempPatient);\r\n        initialPatientId++;\r\n    }\r\n\r\n    modifier onlyAdminAccess() {\r\n        require(\r\n            isAdmin[msg.sender] == 1,\r\n            \"Only admin can access this function\"\r\n        );\r\n        _;\r\n    }\r\n\r\n    function updateVaccineStatus(\r\n        uint _patientId,\r\n        VaccineStatus _vaccineStatus\r\n    ) public onlyAdminAccess {\r\n        patientList[_patientId - 1].vaccineStatus = _vaccineStatus;\r\n    }\r\n\r\n    function updateDeadStatus(\r\n        uint _patientId,\r\n        bool _deadStatus\r\n    ) public onlyAdminAccess {\r\n        patientList[_patientId - 1].isDead = _deadStatus;\r\n    }\r\n}\r\n",
  "sourcePath": "C:\\Users\\ANJAR\\Desktop\\Project 1\\contracts\\patientManagement.sol",
  "compiler": {
    "name": "solc",
    "version": "0.8.21+commit.d9974bed.Emscripten.clang"
  },
  "schemaVersion": "3.4.16",
  "updatedAt": "2024-04-05T19:49:52.030Z",
  "devdoc": {
    "kind": "dev",
    "methods": {},
    "version": 1
  },
  "userdoc": {
    "kind": "user",
    "methods": {},
    "version": 1
  }
}