{
  "contractName": "PatientManagement",
  "abi": [
    {
      "inputs": [],
      "stateMutability": "nonpayable",
      "type": "constructor"
    },
    {
      "anonymous": false,
      "inputs": [
        {
          "indexed": false,
          "internalType": "uint256",
          "name": "patientId",
          "type": "uint256"
        },
        {
          "indexed": false,
          "internalType": "bool",
          "name": "isDead",
          "type": "bool"
        }
      ],
      "name": "updatedDeadStatus",
      "type": "event"
    },
    {
      "anonymous": false,
      "inputs": [
        {
          "indexed": false,
          "internalType": "uint256",
          "name": "patientId",
          "type": "uint256"
        },
        {
          "indexed": false,
          "internalType": "enum PatientManagement.VaccineStatus",
          "name": "vaccineStatus",
          "type": "uint8"
        }
      ],
      "name": "updatedVaccineStatus",
      "type": "event"
    },
    {
      "inputs": [],
      "name": "ownerAddress",
      "outputs": [
        {
          "internalType": "address",
          "name": "",
          "type": "address"
        }
      ],
      "stateMutability": "view",
      "type": "function",
      "constant": true
    },
    {
      "inputs": [
        {
          "internalType": "uint256",
          "name": "",
          "type": "uint256"
        }
      ],
      "name": "patientList",
      "outputs": [
        {
          "internalType": "uint256",
          "name": "patientId",
          "type": "uint256"
        },
        {
          "internalType": "uint8",
          "name": "age",
          "type": "uint8"
        },
        {
          "internalType": "uint256",
          "name": "gender",
          "type": "uint256"
        },
        {
          "internalType": "enum PatientManagement.VaccineStatus",
          "name": "vaccineStatus",
          "type": "uint8"
        },
        {
          "internalType": "string",
          "name": "district",
          "type": "string"
        },
        {
          "internalType": "string",
          "name": "symptomsDetails",
          "type": "string"
        },
        {
          "internalType": "bool",
          "name": "isDead",
          "type": "bool"
        },
        {
          "internalType": "address",
          "name": "patientAddress",
          "type": "address"
        },
        {
          "internalType": "enum PatientManagement.UserType",
          "name": "userType",
          "type": "uint8"
        }
      ],
      "stateMutability": "view",
      "type": "function",
      "constant": true
    },
    {
      "inputs": [
        {
          "internalType": "uint8",
          "name": "_age",
          "type": "uint8"
        },
        {
          "internalType": "uint256",
          "name": "_gender",
          "type": "uint256"
        },
        {
          "internalType": "string",
          "name": "_district",
          "type": "string"
        },
        {
          "internalType": "string",
          "name": "_symptomsDetails",
          "type": "string"
        },
        {
          "internalType": "enum PatientManagement.VaccineStatus",
          "name": "_vaccineStatus",
          "type": "uint8"
        },
        {
          "internalType": "bool",
          "name": "_isDead",
          "type": "bool"
        }
      ],
      "name": "storePatientData",
      "outputs": [],
      "stateMutability": "nonpayable",
      "type": "function"
    },
    {
      "inputs": [
        {
          "internalType": "address",
          "name": "_refAdminAddress",
          "type": "address"
        },
        {
          "internalType": "uint8",
          "name": "_age",
          "type": "uint8"
        },
        {
          "internalType": "uint256",
          "name": "_gender",
          "type": "uint256"
        },
        {
          "internalType": "string",
          "name": "_district",
          "type": "string"
        }
      ],
      "name": "storeAdminData",
      "outputs": [],
      "stateMutability": "nonpayable",
      "type": "function"
    },
    {
      "inputs": [
        {
          "internalType": "uint256",
          "name": "_patientId",
          "type": "uint256"
        },
        {
          "internalType": "enum PatientManagement.VaccineStatus",
          "name": "_vaccineStatus",
          "type": "uint8"
        }
      ],
      "name": "updateVaccineStatus",
      "outputs": [],
      "stateMutability": "nonpayable",
      "type": "function"
    },
    {
      "inputs": [
        {
          "internalType": "uint256",
          "name": "_patientId",
          "type": "uint256"
        },
        {
          "internalType": "bool",
          "name": "_deadStatus",
          "type": "bool"
        }
      ],
      "name": "updateDeadStatus",
      "outputs": [],
      "stateMutability": "nonpayable",
      "type": "function"
    },
    {
      "inputs": [],
      "name": "getPatientDataList",
      "outputs": [
        {
          "components": [
            {
              "internalType": "uint256",
              "name": "patientId",
              "type": "uint256"
            },
            {
              "internalType": "uint8",
              "name": "age",
              "type": "uint8"
            },
            {
              "internalType": "uint256",
              "name": "gender",
              "type": "uint256"
            },
            {
              "internalType": "enum PatientManagement.VaccineStatus",
              "name": "vaccineStatus",
              "type": "uint8"
            },
            {
              "internalType": "string",
              "name": "district",
              "type": "string"
            },
            {
              "internalType": "string",
              "name": "symptomsDetails",
              "type": "string"
            },
            {
              "internalType": "bool",
              "name": "isDead",
              "type": "bool"
            },
            {
              "internalType": "address",
              "name": "patientAddress",
              "type": "address"
            },
            {
              "internalType": "enum PatientManagement.UserType",
              "name": "userType",
              "type": "uint8"
            }
          ],
          "internalType": "struct PatientManagement.User[]",
          "name": "",
          "type": "tuple[]"
        }
      ],
      "stateMutability": "view",
      "type": "function",
      "constant": true
    },
    {
      "inputs": [
        {
          "internalType": "address",
          "name": "_adminAddress",
          "type": "address"
        }
      ],
      "name": "checkIfAdmin",
      "outputs": [
        {
          "internalType": "bool",
          "name": "",
          "type": "bool"
        }
      ],
      "stateMutability": "view",
      "type": "function",
      "constant": true
    },
    {
      "inputs": [
        {
          "internalType": "address",
          "name": "_userAddress",
          "type": "address"
        }
      ],
      "name": "checkIfFullyVaccinated",
      "outputs": [
        {
          "internalType": "bool",
          "name": "",
          "type": "bool"
        }
      ],
      "stateMutability": "view",
      "type": "function",
      "constant": true
    },
    {
      "inputs": [
        {
          "internalType": "address",
          "name": "_patientAddress",
          "type": "address"
        }
      ],
      "name": "checkIfAlreadyPatient",
      "outputs": [
        {
          "internalType": "bool",
          "name": "",
          "type": "bool"
        }
      ],
      "stateMutability": "view",
      "type": "function",
      "constant": true
    }
  ],
  "bytecode": "0x608060405260006001553480156200001657600080fd5b50336000806101000a81548173ffffffffffffffffffffffffffffffffffffffff021916908373ffffffffffffffffffffffffffffffffffffffff16021790555060026040518061012001604052806001548152602001601960ff16815260200160018152602001600060028111156200009557620000946200116b565b5b81526020016040518060400160405280600581526020017f4468616b6100000000000000000000000000000000000000000000000000000081525081526020016040518060400160405280600881526020017f4865616461636865000000000000000000000000000000000000000000000000815250815260200160001515815260200160008054906101000a900473ffffffffffffffffffffffffffffffffffffffff1673ffffffffffffffffffffffffffffffffffffffff168152602001600060018111156200016c576200016b6200116b565b5b81525090806001815401808255809150506001900390600052602060002090600702016000909190919091506000820151816000015560208201518160010160006101000a81548160ff021916908360ff1602179055506040820151816002015560608201518160030160006101000a81548160ff02191690836002811115620001fb57620001fa6200116b565b5b0217905550608082015181600401908162000217919062001414565b5060a08201518160050190816200022f919062001414565b5060c08201518160060160006101000a81548160ff02191690831515021790555060e08201518160060160016101000a81548173ffffffffffffffffffffffffffffffffffffffff021916908373ffffffffffffffffffffffffffffffffffffffff1602179055506101008201518160060160156101000a81548160ff02191690836001811115620002c657620002c56200116b565b5b02179055505050600260405180610120016040528060018152602001601260ff16815260200160028152602001600160028111156200030a57620003096200116b565b5b81526020016040518060400160405280600a81526020017f436869747461676f6e670000000000000000000000000000000000000000000081525081526020016040518060400160405280601681526020017f436f7567682c2046657665722c20486561646163686500000000000000000000815250815260200160001515815260200173d8e9698dba5df92882478e5f049b2666b00120d073ffffffffffffffffffffffffffffffffffffffff168152602001600180811115620003d457620003d36200116b565b5b81525090806001815401808255809150506001900390600052602060002090600702016000909190919091506000820151816000015560208201518160010160006101000a81548160ff021916908360ff1602179055506040820151816002015560608201518160030160006101000a81548160ff021916908360028111156200046357620004626200116b565b5b021790555060808201518160040190816200047f919062001414565b5060a082015181600501908162000497919062001414565b5060c08201518160060160006101000a81548160ff02191690831515021790555060e08201518160060160016101000a81548173ffffffffffffffffffffffffffffffffffffffff021916908373ffffffffffffffffffffffffffffffffffffffff1602179055506101008201518160060160156101000a81548160ff021916908360018111156200052e576200052d6200116b565b5b02179055505050600260405180610120016040528060028152602001605260ff16815260200160028152602001600160028111156200057257620005716200116b565b5b81526020016040518060400160405280600a81526020017f436869747461676f6e670000000000000000000000000000000000000000000081525081526020016040518060400160405280600c81526020017f46657665722c20436f756768000000000000000000000000000000000000000081525081526020016000151581526020017367a3688404800d48554448853e6e7028edb8def973ffffffffffffffffffffffffffffffffffffffff1681526020016001808111156200063c576200063b6200116b565b5b81525090806001815401808255809150506001900390600052602060002090600702016000909190919091506000820151816000015560208201518160010160006101000a81548160ff021916908360ff1602179055506040820151816002015560608201518160030160006101000a81548160ff02191690836002811115620006cb57620006ca6200116b565b5b02179055506080820151816004019081620006e7919062001414565b5060a0820151816005019081620006ff919062001414565b5060c08201518160060160006101000a81548160ff02191690831515021790555060e08201518160060160016101000a81548173ffffffffffffffffffffffffffffffffffffffff021916908373ffffffffffffffffffffffffffffffffffffffff1602179055506101008201518160060160156101000a81548160ff021916908360018111156200079657620007956200116b565b5b02179055505050600260405180610120016040528060038152602001600c60ff16815260200160018152602001600280811115620007d957620007d86200116b565b5b81526020016040518060400160405280600881526020017f52616a736861686900000000000000000000000000000000000000000000000081525081526020016040518060400160405280601681526020017f466174696775652c204c6f7373206f6620546173746500000000000000000000815250815260200160011515815260200173232dccb4f2a2e57d085832aa8151acd4da5ec0cc73ffffffffffffffffffffffffffffffffffffffff168152602001600180811115620008a357620008a26200116b565b5b81525090806001815401808255809150506001900390600052602060002090600702016000909190919091506000820151816000015560208201518160010160006101000a81548160ff021916908360ff1602179055506040820151816002015560608201518160030160006101000a81548160ff021916908360028111156200093257620009316200116b565b5b021790555060808201518160040190816200094e919062001414565b5060a082015181600501908162000966919062001414565b5060c08201518160060160006101000a81548160ff02191690831515021790555060e08201518160060160016101000a81548173ffffffffffffffffffffffffffffffffffffffff021916908373ffffffffffffffffffffffffffffffffffffffff1602179055506101008201518160060160156101000a81548160ff02191690836001811115620009fd57620009fc6200116b565b5b02179055505050600260405180610120016040528060048152602001601c60ff168152602001600281526020016000600281111562000a415762000a406200116b565b5b81526020016040518060400160405280600681526020017f4b68756c6e61000000000000000000000000000000000000000000000000000081525081526020016040518060400160405280601781526020017f426f64792041636865732c20536f7265205468726f617400000000000000000081525081526020016000151581526020017354a231904e3d11447676bf6025af24035401122873ffffffffffffffffffffffffffffffffffffffff16815260200160018081111562000b0b5762000b0a6200116b565b5b81525090806001815401808255809150506001900390600052602060002090600702016000909190919091506000820151816000015560208201518160010160006101000a81548160ff021916908360ff1602179055506040820151816002015560608201518160030160006101000a81548160ff0219169083600281111562000b9a5762000b996200116b565b5b0217905550608082015181600401908162000bb6919062001414565b5060a082015181600501908162000bce919062001414565b5060c08201518160060160006101000a81548160ff02191690831515021790555060e08201518160060160016101000a81548173ffffffffffffffffffffffffffffffffffffffff021916908373ffffffffffffffffffffffffffffffffffffffff1602179055506101008201518160060160156101000a81548160ff0219169083600181111562000c655762000c646200116b565b5b02179055505050600260405180610120016040528060058152602001602d60ff168152602001600181526020016001600281111562000ca95762000ca86200116b565b5b81526020016040518060400160405280600581526020017f4468616b6100000000000000000000000000000000000000000000000000000081525081526020016040518060400160405280601d81526020017f53686f72746e657373206f66204272656174682c204469617272686561000000815250815260200160001515815260200173a43caed907c2987e655e5fff06800021dccc356b73ffffffffffffffffffffffffffffffffffffffff16815260200160018081111562000d735762000d726200116b565b5b81525090806001815401808255809150506001900390600052602060002090600702016000909190919091506000820151816000015560208201518160010160006101000a81548160ff021916908360ff1602179055506040820151816002015560608201518160030160006101000a81548160ff0219169083600281111562000e025762000e016200116b565b5b0217905550608082015181600401908162000e1e919062001414565b5060a082015181600501908162000e36919062001414565b5060c08201518160060160006101000a81548160ff02191690831515021790555060e08201518160060160016101000a81548173ffffffffffffffffffffffffffffffffffffffff021916908373ffffffffffffffffffffffffffffffffffffffff1602179055506101008201518160060160156101000a81548160ff0219169083600181111562000ecd5762000ecc6200116b565b5b021790555050506000600560008060009054906101000a900473ffffffffffffffffffffffffffffffffffffffff1673ffffffffffffffffffffffffffffffffffffffff1673ffffffffffffffffffffffffffffffffffffffff1681526020019081526020016000208190555060016005600073d8e9698dba5df92882478e5f049b2666b00120d073ffffffffffffffffffffffffffffffffffffffff1673ffffffffffffffffffffffffffffffffffffffff168152602001908152602001600020819055506001600560007367a3688404800d48554448853e6e7028edb8def973ffffffffffffffffffffffffffffffffffffffff1673ffffffffffffffffffffffffffffffffffffffff1681526020019081526020016000208190555060026005600073232dccb4f2a2e57d085832aa8151acd4da5ec0cc73ffffffffffffffffffffffffffffffffffffffff1673ffffffffffffffffffffffffffffffffffffffff168152602001908152602001600020819055506000600560007354a231904e3d11447676bf6025af24035401122873ffffffffffffffffffffffffffffffffffffffff1673ffffffffffffffffffffffffffffffffffffffff1681526020019081526020016000208190555060016005600073a43caed907c2987e655e5fff06800021dccc356b73ffffffffffffffffffffffffffffffffffffffff1673ffffffffffffffffffffffffffffffffffffffff168152602001908152602001600020819055506001600360008060009054906101000a900473ffffffffffffffffffffffffffffffffffffffff1673ffffffffffffffffffffffffffffffffffffffff1673ffffffffffffffffffffffffffffffffffffffff168152602001908152602001600020819055506005600181905550620014fb565b7f4e487b7100000000000000000000000000000000000000000000000000000000600052602160045260246000fd5b600081519050919050565b7f4e487b7100000000000000000000000000000000000000000000000000000000600052604160045260246000fd5b7f4e487b7100000000000000000000000000000000000000000000000000000000600052602260045260246000fd5b600060028204905060018216806200121c57607f821691505b602082108103620012325762001231620011d4565b5b50919050565b60008190508160005260206000209050919050565b60006020601f8301049050919050565b600082821b905092915050565b6000600883026200129c7fffffffffffffffffffffffffffffffffffffffffffffffffffffffffffffffff826200125d565b620012a886836200125d565b95508019841693508086168417925050509392505050565b6000819050919050565b6000819050919050565b6000620012f5620012ef620012e984620012c0565b620012ca565b620012c0565b9050919050565b6000819050919050565b6200131183620012d4565b620013296200132082620012fc565b8484546200126a565b825550505050565b600090565b6200134062001331565b6200134d81848462001306565b505050565b5b8181101562001375576200136960008262001336565b60018101905062001353565b5050565b601f821115620013c4576200138e8162001238565b62001399846200124d565b81016020851015620013a9578190505b620013c1620013b8856200124d565b83018262001352565b50505b505050565b600082821c905092915050565b6000620013e960001984600802620013c9565b1980831691505092915050565b6000620014048383620013d6565b9150826002028217905092915050565b6200141f826200119a565b67ffffffffffffffff8111156200143b576200143a620011a5565b5b62001447825462001203565b6200145482828562001379565b600060209050601f8311600181146200148c576000841562001477578287015190505b620014838582620013f6565b865550620014f3565b601f1984166200149c8662001238565b60005b82811015620014c6578489015182556001820191506020850194506020810190506200149f565b86831015620014e65784890151620014e2601f891682620013d6565b8355505b6001600288020188555050505b505050505050565b611f92806200150b6000396000f3fe608060405234801561001057600080fd5b506004361061009e5760003560e01c80638663759c116100665780638663759c146101575780638eed5c5f146101755780638f84aa0914610191578063babb1d41146101af578063d9fa9c1a146101e75761009e565b806308110aa4146100a3578063447b618f146100d35780634d855be5146100ef578063602de8c41461011f57806384825f831461013b575b600080fd5b6100bd60048036038101906100b89190611115565b610217565b6040516100ca919061115d565b60405180910390f35b6100ed60048036038101906100e8919061132d565b610273565b005b61010960048036038101906101049190611115565b610554565b604051610116919061115d565b60405180910390f35b610139600480360381019061013491906113d5565b6105b0565b005b61015560048036038101906101509190611441565b61075d565b005b61015f610859565b60405161016c9190611789565b60405180910390f35b61018f600480360381019061018a91906117ab565b610af5565b005b610199610e61565b6040516101a6919061187f565b60405180910390f35b6101c960048036038101906101c4919061189a565b610e85565b6040516101de9998979695949392919061194d565b60405180910390f35b61020160048036038101906101fc9190611115565b611047565b60405161020e919061115d565b60405180910390f35b60006002600560008473ffffffffffffffffffffffffffffffffffffffff1673ffffffffffffffffffffffffffffffffffffffff1681526020019081526020016000205403610269576001905061026e565b600090505b919050565b836001600360008373ffffffffffffffffffffffffffffffffffffffff1673ffffffffffffffffffffffffffffffffffffffff16815260200190815260200160002054146102f6576040517f08c379a00000000000000000000000000000000000000000000000000000000081526004016102ed90611a34565b60405180910390fd5b6000604051806101200160405280600180546103129190611a83565b81526020018660ff1681526020018581526020016000600281111561033a576103396114cb565b5b81526020018481526020016040518060200160405280600081525081526020016000151581526020013373ffffffffffffffffffffffffffffffffffffffff16815260200160006001811115610393576103926114cb565b5b815250905060028190806001815401808255809150506001900390600052602060002090600702016000909190919091506000820151816000015560208201518160010160006101000a81548160ff021916908360ff1602179055506040820151816002015560608201518160030160006101000a81548160ff02191690836002811115610424576104236114cb565b5b0217905550608082015181600401908161043e9190611cc3565b5060a08201518160050190816104549190611cc3565b5060c08201518160060160006101000a81548160ff02191690831515021790555060e08201518160060160016101000a81548173ffffffffffffffffffffffffffffffffffffffff021916908373ffffffffffffffffffffffffffffffffffffffff1602179055506101008201518160060160156101000a81548160ff021916908360018111156104e8576104e76114cb565b5b021790555050506001600360003373ffffffffffffffffffffffffffffffffffffffff1673ffffffffffffffffffffffffffffffffffffffff168152602001908152602001600020819055506001600081548092919061054790611d95565b9190505550505050505050565b60006001600460008473ffffffffffffffffffffffffffffffffffffffff1673ffffffffffffffffffffffffffffffffffffffff16815260200190815260200160002054036105a657600190506105ab565b600090505b919050565b6001600360003373ffffffffffffffffffffffffffffffffffffffff1673ffffffffffffffffffffffffffffffffffffffff1681526020019081526020016000205414610632576040517f08c379a000000000000000000000000000000000000000000000000000000000815260040161062990611e4f565b60405180910390fd5b806002838154811061064757610646611e6f565b5b906000526020600020906007020160030160006101000a81548160ff0219169083600281111561067a576106796114cb565b5b021790555060006002838154811061069557610694611e6f565b5b906000526020600020906007020160060160019054906101000a900473ffffffffffffffffffffffffffffffffffffffff1690508160028111156106dc576106db6114cb565b5b600560008373ffffffffffffffffffffffffffffffffffffffff1673ffffffffffffffffffffffffffffffffffffffff168152602001908152602001600020819055507f28f4553db92f9508f7a069dbeda084ec142b58bbf20e31108427aea51cbca85a8383604051610750929190611e9e565b60405180910390a1505050565b6001600360003373ffffffffffffffffffffffffffffffffffffffff1673ffffffffffffffffffffffffffffffffffffffff16815260200190815260200160002054146107df576040517f08c379a00000000000000000000000000000000000000000000000000000000081526004016107d690611e4f565b60405180910390fd5b80600283815481106107f4576107f3611e6f565b5b906000526020600020906007020160060160006101000a81548160ff0219169083151502179055507f0b533c80b1d251025d417e75ae2d7ab58fa2ed43bc8714d988b640f138e5e4a3828260405161084d929190611ec7565b60405180910390a15050565b60606002805480602002602001604051908101604052809291908181526020016000905b82821015610aec578382906000526020600020906007020160405180610120016040529081600082015481526020016001820160009054906101000a900460ff1660ff1660ff168152602001600282015481526020016003820160009054906101000a900460ff1660028111156108f7576108f66114cb565b5b6002811115610909576109086114cb565b5b815260200160048201805461091d90611ae6565b80601f016020809104026020016040519081016040528092919081815260200182805461094990611ae6565b80156109965780601f1061096b57610100808354040283529160200191610996565b820191906000526020600020905b81548152906001019060200180831161097957829003601f168201915b505050505081526020016005820180546109af90611ae6565b80601f01602080910402602001604051908101604052809291908181526020018280546109db90611ae6565b8015610a285780601f106109fd57610100808354040283529160200191610a28565b820191906000526020600020905b815481529060010190602001808311610a0b57829003601f168201915b505050505081526020016006820160009054906101000a900460ff161515151581526020016006820160019054906101000a900473ffffffffffffffffffffffffffffffffffffffff1673ffffffffffffffffffffffffffffffffffffffff1673ffffffffffffffffffffffffffffffffffffffff1681526020016006820160159054906101000a900460ff166001811115610ac757610ac66114cb565b5b6001811115610ad957610ad86114cb565b5b815250508152602001906001019061087d565b50505050905090565b336000600460008373ffffffffffffffffffffffffffffffffffffffff1673ffffffffffffffffffffffffffffffffffffffff1681526020019081526020016000205414610b78576040517f08c379a0000000000000000000000000000000000000000000000000000000008152600401610b6f90611f3c565b60405180910390fd5b600060405180610120016040528060018054610b949190611a83565b81526020018960ff168152602001888152602001856002811115610bbb57610bba6114cb565b5b815260200187815260200186815260200184151581526020013373ffffffffffffffffffffffffffffffffffffffff168152602001600180811115610c0357610c026114cb565b5b815250905060028190806001815401808255809150506001900390600052602060002090600702016000909190919091506000820151816000015560208201518160010160006101000a81548160ff021916908360ff1602179055506040820151816002015560608201518160030160006101000a81548160ff02191690836002811115610c9457610c936114cb565b5b02179055506080820151816004019081610cae9190611cc3565b5060a0820151816005019081610cc49190611cc3565b5060c08201518160060160006101000a81548160ff02191690831515021790555060e08201518160060160016101000a81548173ffffffffffffffffffffffffffffffffffffffff021916908373ffffffffffffffffffffffffffffffffffffffff1602179055506101008201518160060160156101000a81548160ff02191690836001811115610d5857610d576114cb565b5b021790555050506000600360003373ffffffffffffffffffffffffffffffffffffffff1673ffffffffffffffffffffffffffffffffffffffff168152602001908152602001600020819055506001600460003373ffffffffffffffffffffffffffffffffffffffff1673ffffffffffffffffffffffffffffffffffffffff16815260200190815260200160002081905550836002811115610dfc57610dfb6114cb565b5b600560003373ffffffffffffffffffffffffffffffffffffffff1673ffffffffffffffffffffffffffffffffffffffff1681526020019081526020016000208190555060016000815480929190610e5290611d95565b91905055505050505050505050565b60008054906101000a900473ffffffffffffffffffffffffffffffffffffffff1681565b60028181548110610e9557600080fd5b90600052602060002090600702016000915090508060000154908060010160009054906101000a900460ff16908060020154908060030160009054906101000a900460ff1690806004018054610eea90611ae6565b80601f0160208091040260200160405190810160405280929190818152602001828054610f1690611ae6565b8015610f635780601f10610f3857610100808354040283529160200191610f63565b820191906000526020600020905b815481529060010190602001808311610f4657829003601f168201915b505050505090806005018054610f7890611ae6565b80601f0160208091040260200160405190810160405280929190818152602001828054610fa490611ae6565b8015610ff15780601f10610fc657610100808354040283529160200191610ff1565b820191906000526020600020905b815481529060010190602001808311610fd457829003601f168201915b5050505050908060060160009054906101000a900460ff16908060060160019054906101000a900473ffffffffffffffffffffffffffffffffffffffff16908060060160159054906101000a900460ff16905089565b60006001600360008473ffffffffffffffffffffffffffffffffffffffff1673ffffffffffffffffffffffffffffffffffffffff1681526020019081526020016000205403611099576001905061109e565b600090505b919050565b6000604051905090565b600080fd5b600080fd5b600073ffffffffffffffffffffffffffffffffffffffff82169050919050565b60006110e2826110b7565b9050919050565b6110f2816110d7565b81146110fd57600080fd5b50565b60008135905061110f816110e9565b92915050565b60006020828403121561112b5761112a6110ad565b5b600061113984828501611100565b91505092915050565b60008115159050919050565b61115781611142565b82525050565b6000602082019050611172600083018461114e565b92915050565b600060ff82169050919050565b61118e81611178565b811461119957600080fd5b50565b6000813590506111ab81611185565b92915050565b6000819050919050565b6111c4816111b1565b81146111cf57600080fd5b50565b6000813590506111e1816111bb565b92915050565b600080fd5b600080fd5b6000601f19601f8301169050919050565b7f4e487b7100000000000000000000000000000000000000000000000000000000600052604160045260246000fd5b61123a826111f1565b810181811067ffffffffffffffff8211171561125957611258611202565b5b80604052505050565b600061126c6110a3565b90506112788282611231565b919050565b600067ffffffffffffffff82111561129857611297611202565b5b6112a1826111f1565b9050602081019050919050565b82818337600083830152505050565b60006112d06112cb8461127d565b611262565b9050828152602081018484840111156112ec576112eb6111ec565b5b6112f78482856112ae565b509392505050565b600082601f830112611314576113136111e7565b5b81356113248482602086016112bd565b91505092915050565b60008060008060808587031215611347576113466110ad565b5b600061135587828801611100565b94505060206113668782880161119c565b9350506040611377878288016111d2565b925050606085013567ffffffffffffffff811115611398576113976110b2565b5b6113a4878288016112ff565b91505092959194509250565b600381106113bd57600080fd5b50565b6000813590506113cf816113b0565b92915050565b600080604083850312156113ec576113eb6110ad565b5b60006113fa858286016111d2565b925050602061140b858286016113c0565b9150509250929050565b61141e81611142565b811461142957600080fd5b50565b60008135905061143b81611415565b92915050565b60008060408385031215611458576114576110ad565b5b6000611466858286016111d2565b92505060206114778582860161142c565b9150509250929050565b600081519050919050565b600082825260208201905092915050565b6000819050602082019050919050565b6114b6816111b1565b82525050565b6114c581611178565b82525050565b7f4e487b7100000000000000000000000000000000000000000000000000000000600052602160045260246000fd5b6003811061150b5761150a6114cb565b5b50565b600081905061151c826114fa565b919050565b600061152c8261150e565b9050919050565b61153c81611521565b82525050565b600081519050919050565b600082825260208201905092915050565b60005b8381101561157c578082015181840152602081019050611561565b60008484015250505050565b600061159382611542565b61159d818561154d565b93506115ad81856020860161155e565b6115b6816111f1565b840191505092915050565b6115ca81611142565b82525050565b6115d9816110d7565b82525050565b600281106115f0576115ef6114cb565b5b50565b6000819050611601826115df565b919050565b6000611611826115f3565b9050919050565b61162181611606565b82525050565b60006101208301600083015161164060008601826114ad565b50602083015161165360208601826114bc565b50604083015161166660408601826114ad565b5060608301516116796060860182611533565b50608083015184820360808601526116918282611588565b91505060a083015184820360a08601526116ab8282611588565b91505060c08301516116c060c08601826115c1565b5060e08301516116d360e08601826115d0565b506101008301516116e8610100860182611618565b508091505092915050565b60006116ff8383611627565b905092915050565b6000602082019050919050565b600061171f82611481565b611729818561148c565b93508360208202850161173b8561149d565b8060005b85811015611777578484038952815161175885826116f3565b945061176383611707565b925060208a0199505060018101905061173f565b50829750879550505050505092915050565b600060208201905081810360008301526117a38184611714565b905092915050565b60008060008060008060c087890312156117c8576117c76110ad565b5b60006117d689828a0161119c565b96505060206117e789828a016111d2565b955050604087013567ffffffffffffffff811115611808576118076110b2565b5b61181489828a016112ff565b945050606087013567ffffffffffffffff811115611835576118346110b2565b5b61184189828a016112ff565b935050608061185289828a016113c0565b92505060a061186389828a0161142c565b9150509295509295509295565b611879816110d7565b82525050565b60006020820190506118946000830184611870565b92915050565b6000602082840312156118b0576118af6110ad565b5b60006118be848285016111d2565b91505092915050565b6118d0816111b1565b82525050565b6118df81611178565b82525050565b6118ee81611521565b82525050565b600082825260208201905092915050565b600061191082611542565b61191a81856118f4565b935061192a81856020860161155e565b611933816111f1565b840191505092915050565b61194781611606565b82525050565b600061012082019050611963600083018c6118c7565b611970602083018b6118d6565b61197d604083018a6118c7565b61198a60608301896118e5565b818103608083015261199c8188611905565b905081810360a08301526119b08187611905565b90506119bf60c083018661114e565b6119cc60e0830185611870565b6119da61010083018461193e565b9a9950505050505050505050565b7f496e76616c6964207265666572656e6365206164647265737321000000000000600082015250565b6000611a1e601a836118f4565b9150611a29826119e8565b602082019050919050565b60006020820190508181036000830152611a4d81611a11565b9050919050565b7f4e487b7100000000000000000000000000000000000000000000000000000000600052601160045260246000fd5b6000611a8e826111b1565b9150611a99836111b1565b9250828201905080821115611ab157611ab0611a54565b5b92915050565b7f4e487b7100000000000000000000000000000000000000000000000000000000600052602260045260246000fd5b60006002820490506001821680611afe57607f821691505b602082108103611b1157611b10611ab7565b5b50919050565b60008190508160005260206000209050919050565b60006020601f8301049050919050565b600082821b905092915050565b600060088302611b797fffffffffffffffffffffffffffffffffffffffffffffffffffffffffffffffff82611b3c565b611b838683611b3c565b95508019841693508086168417925050509392505050565b6000819050919050565b6000611bc0611bbb611bb6846111b1565b611b9b565b6111b1565b9050919050565b6000819050919050565b611bda83611ba5565b611bee611be682611bc7565b848454611b49565b825550505050565b600090565b611c03611bf6565b611c0e818484611bd1565b505050565b5b81811015611c3257611c27600082611bfb565b600181019050611c14565b5050565b601f821115611c7757611c4881611b17565b611c5184611b2c565b81016020851015611c60578190505b611c74611c6c85611b2c565b830182611c13565b50505b505050565b600082821c905092915050565b6000611c9a60001984600802611c7c565b1980831691505092915050565b6000611cb38383611c89565b9150826002028217905092915050565b611ccc82611542565b67ffffffffffffffff811115611ce557611ce4611202565b5b611cef8254611ae6565b611cfa828285611c36565b600060209050601f831160018114611d2d5760008415611d1b578287015190505b611d258582611ca7565b865550611d8d565b601f198416611d3b86611b17565b60005b82811015611d6357848901518255600182019150602085019450602081019050611d3e565b86831015611d805784890151611d7c601f891682611c89565b8355505b6001600288020188555050505b505050505050565b6000611da0826111b1565b91507fffffffffffffffffffffffffffffffffffffffffffffffffffffffffffffffff8203611dd257611dd1611a54565b5b600182019050919050565b7f4f6e6c792061646d696e2063616e2061636365737320746869732066756e637460008201527f696f6e0000000000000000000000000000000000000000000000000000000000602082015250565b6000611e396023836118f4565b9150611e4482611ddd565b604082019050919050565b60006020820190508181036000830152611e6881611e2c565b9050919050565b7f4e487b7100000000000000000000000000000000000000000000000000000000600052603260045260246000fd5b6000604082019050611eb360008301856118c7565b611ec060208301846118e5565b9392505050565b6000604082019050611edc60008301856118c7565b611ee9602083018461114e565b9392505050565b7f50617469656e7420416c72656164792045786973747321000000000000000000600082015250565b6000611f266017836118f4565b9150611f3182611ef0565b602082019050919050565b60006020820190508181036000830152611f5581611f19565b905091905056fea26469706673582212206df6b3be3da366cf9a13d14b292c741ddd798dd919b8957410f3eea1bdb51aed64736f6c63430008110033",
  "immutableReferences": {},
  "source": "// SPDX-License-Identifier: MIT\r\npragma solidity 0.8.17;\r\n\r\n// Admin, Patient\r\n\r\ncontract PatientManagement {\r\n    address public ownerAddress;\r\n\r\n    uint internal initialPatientId = 0;\r\n\r\n    User[] public patientList;\r\n    mapping(address => uint) isAdmin;\r\n    mapping(address => uint) isAlreadyPatient;\r\n    mapping(address => uint) vaccinationStatus;\r\n    event updatedDeadStatus(uint patientId, bool isDead);\r\n    event updatedVaccineStatus(uint patientId, VaccineStatus vaccineStatus);\r\n\r\n    struct User {\r\n        uint256 patientId;\r\n        uint8 age;\r\n        uint256 gender; // 1 - male, 2- female;\r\n        VaccineStatus vaccineStatus; // 0, 1, 2\r\n        string district;\r\n        string symptomsDetails;\r\n        bool isDead;\r\n        address patientAddress;\r\n        UserType userType;\r\n    }\r\n    enum VaccineStatus {\r\n        not_vaccinated,\r\n        one_dose,\r\n        two_dose\r\n    }\r\n    enum UserType {\r\n        admin,\r\n        patient\r\n    }\r\n\r\n    modifier onlyAdminAccess() {\r\n        require(\r\n            isAdmin[msg.sender] == 1,\r\n            \"Only admin can access this function\"\r\n        );\r\n        _;\r\n    }\r\n\r\n    modifier validRefAdminAddress(address _refAddress) {\r\n        require(isAdmin[_refAddress] == 1, \"Invalid reference address!\");\r\n        _;\r\n    }\r\n\r\n    modifier validPatientAddress(address _patientAddress) {\r\n        require(\r\n            isAlreadyPatient[_patientAddress] == 0,\r\n            \"Patient Already Exists!\"\r\n        );\r\n        _;\r\n    }\r\n\r\n    constructor() {\r\n        ownerAddress = msg.sender;\r\n        patientList.push(\r\n            User(\r\n                initialPatientId,\r\n                25,\r\n                1,\r\n                VaccineStatus.not_vaccinated,\r\n                \"Dhaka\",\r\n                \"Headache\",\r\n                false,\r\n                ownerAddress,\r\n                UserType.admin\r\n            )\r\n        );\r\n        patientList.push(\r\n            User(\r\n                1,\r\n                18,\r\n                2,\r\n                VaccineStatus.one_dose,\r\n                \"Chittagong\",\r\n                \"Cough, Fever, Headache\",\r\n                false,\r\n                address(0xD8e9698dbA5dF92882478e5f049b2666b00120d0),\r\n                UserType.patient\r\n            )\r\n        );\r\n        patientList.push(\r\n            User(\r\n                2,\r\n                82,\r\n                2,\r\n                VaccineStatus.one_dose,\r\n                \"Chittagong\",\r\n                \"Fever, Cough\",\r\n                false,\r\n                address(0x67A3688404800d48554448853e6e7028EDB8dEF9),\r\n                UserType.patient\r\n            )\r\n        );\r\n\r\n        patientList.push(\r\n            User(\r\n                3,\r\n                12,\r\n                1,\r\n                VaccineStatus.two_dose,\r\n                \"Rajshahi\",\r\n                \"Fatigue, Loss of Taste\",\r\n                true,\r\n                address(0x232Dccb4f2a2e57d085832aa8151Acd4dA5EC0cc),\r\n                UserType.patient\r\n            )\r\n        );\r\n        patientList.push(\r\n            User(\r\n                4,\r\n                28,\r\n                2,\r\n                VaccineStatus.not_vaccinated,\r\n                \"Khulna\",\r\n                \"Body Aches, Sore Throat\",\r\n                false,\r\n                address(0x54a231904E3D11447676BF6025aF240354011228),\r\n                UserType.patient\r\n            )\r\n        );\r\n\r\n        patientList.push(\r\n            User(\r\n                5,\r\n                45,\r\n                1,\r\n                VaccineStatus.one_dose,\r\n                \"Dhaka\",\r\n                \"Shortness of Breath, Diarrhea\",\r\n                false,\r\n                address(0xA43CaeD907c2987E655E5Fff06800021DCcC356b),\r\n                UserType.patient\r\n            )\r\n        );\r\n\r\n        vaccinationStatus[ownerAddress] = 0;\r\n\r\n        vaccinationStatus[\r\n            address(0xD8e9698dbA5dF92882478e5f049b2666b00120d0)\r\n        ] = 1;\r\n        vaccinationStatus[\r\n            address(0x67A3688404800d48554448853e6e7028EDB8dEF9)\r\n        ] = 1;\r\n        vaccinationStatus[\r\n            address(0x232Dccb4f2a2e57d085832aa8151Acd4dA5EC0cc)\r\n        ] = 2;\r\n        vaccinationStatus[\r\n            address(0x54a231904E3D11447676BF6025aF240354011228)\r\n        ] = 0;\r\n        vaccinationStatus[\r\n            address(0xA43CaeD907c2987E655E5Fff06800021DCcC356b)\r\n        ] = 1;\r\n\r\n        isAdmin[ownerAddress] = 1;\r\n        initialPatientId = 5;\r\n    }\r\n\r\n    // Storing patient data\r\n    function storePatientData(\r\n        uint8 _age,\r\n        uint256 _gender,\r\n        string memory _district,\r\n        string memory _symptomsDetails,\r\n        VaccineStatus _vaccineStatus,\r\n        bool _isDead\r\n    ) public validPatientAddress(msg.sender) {\r\n        User memory tempPatient = User(\r\n            initialPatientId + 1,\r\n            _age,\r\n            _gender,\r\n            _vaccineStatus,\r\n            _district,\r\n            _symptomsDetails,\r\n            _isDead,\r\n            msg.sender,\r\n            UserType.patient\r\n        );\r\n\r\n        patientList.push(tempPatient);\r\n        isAdmin[msg.sender] = 0;\r\n        isAlreadyPatient[msg.sender] = 1;\r\n        vaccinationStatus[msg.sender] = uint(_vaccineStatus);\r\n        initialPatientId++;\r\n    }\r\n\r\n    function storeAdminData(\r\n        address _refAdminAddress,\r\n        uint8 _age,\r\n        uint256 _gender,\r\n        string memory _district\r\n    ) public validRefAdminAddress(_refAdminAddress) {\r\n        User memory tempPatient = User(\r\n            initialPatientId + 1,\r\n            _age,\r\n            _gender,\r\n            VaccineStatus.not_vaccinated,\r\n            _district,\r\n            \"\",\r\n            false,\r\n            msg.sender,\r\n            UserType.admin\r\n        );\r\n        patientList.push(tempPatient);\r\n        isAdmin[msg.sender] = 1;\r\n        initialPatientId++;\r\n    }\r\n\r\n    function updateVaccineStatus(\r\n        uint _patientId,\r\n        VaccineStatus _vaccineStatus\r\n    ) public onlyAdminAccess {\r\n        patientList[_patientId].vaccineStatus = _vaccineStatus;\r\n        address patientAddress = patientList[_patientId].patientAddress;\r\n        vaccinationStatus[patientAddress] = uint(_vaccineStatus);\r\n        emit updatedVaccineStatus(_patientId, _vaccineStatus);\r\n    }\r\n\r\n    function updateDeadStatus(\r\n        uint _patientId,\r\n        bool _deadStatus\r\n    ) public onlyAdminAccess {\r\n        patientList[_patientId].isDead = _deadStatus;\r\n        emit updatedDeadStatus(_patientId, _deadStatus);\r\n    }\r\n\r\n    function getPatientDataList() public view returns (User[] memory) {\r\n        return patientList;\r\n    }\r\n\r\n    function checkIfAdmin(address _adminAddress) public view returns (bool) {\r\n        if (isAdmin[_adminAddress] == 1) {\r\n            return true;\r\n        }\r\n        return false;\r\n    }\r\n\r\n    function checkIfFullyVaccinated(\r\n        address _userAddress\r\n    ) public view returns (bool) {\r\n        if (vaccinationStatus[_userAddress] == 2) {\r\n            return true;\r\n        }\r\n        return false;\r\n    }\r\n\r\n    function checkIfAlreadyPatient(\r\n        address _patientAddress\r\n    ) public view returns (bool) {\r\n        if (isAlreadyPatient[_patientAddress] == 1) {\r\n            return true;\r\n        }\r\n        return false;\r\n    }\r\n}\r\n",
  "sourcePath": "C:\\Users\\ANJAR\\Desktop\\Project 1\\contracts\\patientManagement.sol",
  "compiler": {
    "name": "solc",
    "version": "0.8.17+commit.8df45f5f.Emscripten.clang"
  },
  "schemaVersion": "3.4.16",
  "updatedAt": "2024-04-15T18:35:26.038Z",
  "networkType": "ethereum",
  "devdoc": {
    "kind": "dev",
    "methods": {},
    "version": 1
  },
  "userdoc": {
    "kind": "user",
    "methods": {},
    "version": 1
  }
}